:100000000C9408070C9430070C9430070C943007BC
:100010000C9430070C9430070C9430070C94300784
:100020000C9430070C9430070C94C51B0C94341CB2
:100030000C9430070C9430070C9430070C94300764
:100040000C9430070C9430070C9430070C94300754
:100050000C9430070C9430070C9430070C94661EF7
:100060000C9430070C9430070C9430070C94300734
:100070000C9430070C9430070C9430070C94300724
:100080000C9430070C9430070C9430070C94300714
:100090000C94B01E0C9430070C9430070C9430076D
:1000A0000C9430070C9430070C94300700000000CB
:1000B0000000000000000000000000002A002B00EB
:1000C0002800000000000000000000000000000008
:1000D0000000000000000000000000000000000020
:1000E0000000000000000000000000002C001E02C4
:1000F00034022002210222022402340026022702B6
:1001000025022E0236002D003700380027001E0081
:100110001F002000210022002300240025002600CB
:100120003302330036022E00370238021F02040267
:10013000050206020702080209020A020B020C026B
:100140000D020E020F02100211021202130214021B
:10015000150216021702180219021A021B021C02CB
:100160001D022F003100300023022D023500040053
:10017000050006000700080009000A000B000C003B
:100180000D000E000F0010001100120013001400EB
:10019000150016001700180019001A001B001C009B
:1001A0001D002F0231023002350200000000000065
:1001B000000000000000000000000000000000003F
:1001C000000000000000000000000000000000002F
:1001D000000000000000000000000000000000001F
:1001E000000000000000000000000000000000000F
:1001F00000000000000000000000000000000000FF
:1002000000000000000000000000000000000000EE
:1002100000000000000000000000000000000000DE
:1002200000000000000000000000000000000000CE
:1002300000000000000000000000000000000000BE
:1002400000000000000000000000000000000000AE
:10025000000000000000000000000000000000009E
:10026000000000000000000000000000000000008E
:10027000000000000000000000000000000000007E
:10028000000000000000000000000000000000006E
:10029000000000000000000000000000000000005E
:1002A000000000000000000000000000000000004E
:1002B000003E5B4F5B3E3E6B4F6B3E1C3E7C3E1CEC
:1002C000183C7E3C181C577D571C1C5E7F5E1C0032
:1002D000183C1800FFE7C3E7FF0018241800FFE7E9
:1002E000DBE7FF30483A060E2629792926407F05AC
:1002F0000507407F05253F5A3CE73C5A7F3E1C1CC2
:1003000008081C1C3E7F14227F22145F5F005F5F81
:1003100006097F017F006689956A6060606060946D
:10032000A2FFA29408047E040810207E2010080872
:100330002A1C08081C2A08081E101010100C1E0C7D
:100340001E0C30383E3830060E3E0E06000000000F
:100350000000005F00000007000700147F147F14F6
:10036000242A7F2A1223130864623649562050003B
:1003700008070300001C2241000041221C002A1C27
:100380007F1C2A08083E0808008070300008080812
:100390000808000060600020100804023E51494532
:1003A0003E00427F400072494949462141494D3350
:1003B0001814127F1027454545393C4A49493141B7
:1003C000211109073649494936464949291E000085
:1003D00014000000403400000008142241141414DA
:1003E0001414004122140802015909063E415D59C6
:1003F0004E7C1211127C7F494949363E41414122CF
:100400007F4141413E7F494949417F090909013EF8
:10041000414151737F0808087F00417F410020401F
:10042000413F017F081422417F404040407F021C31
:10043000027F7F0408107F3E4141413E7F09090948
:10044000063E4151215E7F09192946264949493214
:1004500003017F01033F4040403F1F2040201F3FDA
:100460004038403F6314081463030478040361595F
:10047000494D43007F4141410204081020004141A1
:10048000417F04020102044040404040000307084D
:100490000020545478407F28444438384444442849
:1004A000384444287F385454541800087E090218F0
:1004B000A4A49C787F0804047800447D4000204078
:1004C000403D007F1028440000417F40007C0478BC
:1004D00004787C080404783844444438FC18242404
:1004E0001818242418FC7C08040408485454542484
:1004F00004043F44243C4040207C1C2040201C3C01
:100500004030403C44281028444C9090907C4464F7
:10051000544C44000836410000007700000041368A
:10052000080002010204023C2623263C1EA1A16110
:10053000123A4040207A3854545559215555794142
:100540002254547842215554784020545579400C17
:100550001E527212395555555939545454593955FA
:100560005454580000457C410002457D420001453D
:100570007C407D1211127DF0282528F07C545545D1
:10058000002054547C547C0A097F4932494949323D
:100590003A4444443A324A4848303A4141217A3A4E
:1005A00042402078009DA0A07D3D4242423D3D401A
:1005B00040403D3C24FF2424487E4943662B2FFCC9
:1005C0002F2BFF0929F620C0887E09032054547977
:1005D000410000447D413048484A32384040227A48
:1005E000007A0A0A727D0D19317D2629292F2826C5
:1005F0002929292630484D402038080808080808CD
:100600000808382F10C8ACBA2F102834FA00007B25
:10061000000008142A142222142A14085500550038
:1006200055AA55AA55AAFF55FF55FF000000FF0027
:10063000101010FF00141414FF001010FF00FF1022
:1006400010F010F0141414FC001414F700FF000054
:10065000FF00FF1414F404FC141417101F10101FD3
:10066000101F1414141F00101010F0000000001FC1
:10067000101010101F10101010F010000000FF10CC
:100680001010101010101010FF10000000FF1400C8
:1006900000FF00FF00001F10170000FC04F41414FA
:1006A0001710171414F404F40000FF00F7141414C6
:1006B00014141414F700F7141414171410101F1046
:1006C0001F141414F4141010F010F000001F101F69
:1006D0000000001F14000000FC140000F010F010D7
:1006E00010FF10FF141414FF141010101F0000004E
:1006F00000F010FFFFFFFFFFF0F0F0F0F0FFFFFF52
:100700000000000000FFFF0F0F0F0F0F38444438A8
:1007100044FC4A4A4A347E02020606027E027E02F7
:1007200063554941633844443C04407E201E200602
:10073000027E020299A5E7A5991C2A492A1C4C723F
:1007400001724C304A4D4D303048784830BC625AC6
:10075000463D3E494949007E0101017E2A2A2A2A56
:100760002A44445F444440514A444040444A514032
:100770000000FF0103E080FF000008086B6B0836F3
:1007800012362436060F090F060000181800000064
:100790001010003040FF0101001F01011E00191D53
:1007A0001712003C3C3C3C00000000000001030725
:1007B0000F1F3F7F0080C0E0F0F8FCFE000000004B
:1007C0002300260029002C002F0000000002000951
:1007D0000F0000030401000C0000000000000000F6
:1007E000000000000000000000080B0002020200F0
:1007F00000090400000102020000052400100105A8
:1008000024010101042402060524060001070581D4
:100810000310004009040100020A0000000705025D
:10082000024000000705830240000004030904128F
:10083000010002EF02014041233680000101020362
:100840000141726475696E6F204C4C4300417264C3
:1008500075696E6F204C656F6E6172646F00000089
:100860000000240027002A002D003000DB40A4A651
:100870002EAF2000A1C8D300408DAED580A80408BB
:100880000201104080401020408040800802040196
:100890008040201002011080102040402000000005
:1008A00000250028002B002E00310004040404045D
:1008B0000304050202020204030202020206060603
:1008C00006060604040202020404000060000000A0
:1008D0000000000000000000000000E00000000038
:1008E00000000000000000000001E0000000000027
:1008F000000000000000000001F000000000000007
:100900000000000000000003F000000000000000F4
:1009100000000000000007F00000000000000000E0
:10092000000000000007F8000000000000000000C8
:10093000000000000FF800000003C0007E0000016E
:10094000E0007F0FF800000003C000FE000001E09F
:1009500000FFEFF800000003C000FE000001E0000F
:10096000FFFFF800000003C000F00000000F007F50
:10097000FE7FC0000003C000F00000000F003FFE3B
:100980007FF83FF1FBCFFCFEF3BC3DEFE01FFE7FA5
:10099000FF7FFBFFDFFEFEFFBC3DEFE01FC6FFFF5A
:1009A0007FFBFFDFFEFEFFBC3DEFE00FE3C7FE78FD
:1009B0007BC3DE1EF0FFBC3DEF0007FF87FC787BAA
:1009C000C3DE1EF0F83C3DEF0001FFFFF0007BC3EB
:1009D000C01EF0F03C3DEF0001F37FE03FFBC3CFD2
:1009E000FEF0F03C3DEF0003E33F807FFBC3DFFE02
:1009F000F0F03C3DEF0007E73C00787BC3DE1EF0E3
:100A0000F03C3DEF0007FFBE00787BC3DE1EF0F038
:100A10003C3DEF0007FFFE00787BC3DE1EF0F03C9C
:100A20003DEF000FFFFE007FFBFFDFFEF0F03FFD1C
:100A3000EFE00FFFFF007FFBFFDFFEF0F03FFDEF79
:100A4000E00FF9FF003E79F9CF9EF0F01F3DE7E09F
:100A50001FF1FF0000000000000000000000001F68
:100A600080FF007FFFFFFFFFFFFFFFFFFFE01C0095
:100A70007F007FFFFFFFFEB46D888D18E000001F30
:100A8000007FFFFFFFFE95AD7DB577E000000F0012
:100A90007FFFFFFFFEA5AD9D8D19E0000006007FE2
:100AA000FFFFFFFEB5ADEDB57EE0000000000001E8
:100AB0008000000000000000000003800000000033
:100AC000000000000007C00000000000000000005F
:100AD00007C00000000000000000000FC000000080
:100AE0000000000000001FE0000000000000000007
:100AF000001FE00000000000000000003FE00000D8
:100B0000000000000000003FF000000000000000B6
:100B100000007FF0000000000000001FF87FF000E0
:100B20000000000000003FFE7FF000000000000019
:100B3000003FFF7FF0000000000000001FFFFBE00F
:100B4000000000000000000FFFF9FFC000000000DF
:100B500000000FFFF9FFF800000000000007FFF1A0
:100B6000FFFF00000000000003FC73FFFF80000097
:100B700000000001FE3FFFFF80000000000000FFBA
:100B80001E0FFF000000000000007FFE1FFC0000A1
:100B900000000000003FFFFFF80000000000000020
:100BA0000FDFFFE0000000000000001F19FFC00081
:100BB0000000000000003F3CFF00000000000000BB
:100BC000007E7CF800000000000000007FFE7C003A
:100BD00000000000000000FFFFFC0000000000001B
:100BE0000000FFFFFE0000000000000000FFFFFE0D
:100BF0000000000000000001FFEFFE000000000008
:100C0000000001FFCFFE0000000000000003FF070E
:100C1000FE0000000000000003FC07FE00000000D2
:100C200000000003F003FE0000000000000001804F
:100C300000FE000000000000000000007E00000038
:100C4000000000000000003E000000000000000066
:100C500000000C000000000000078000FC00000302
:100C6000C0000000078001FC000003C00000000776
:100C70008001FC000003C0000000078001E00000CC
:100C8000001E000000078001E00000001E007FE35E
:100C9000F79FF9FDE7787BDFC0FFF7FFBFFDFDFFA2
:100CA000787BDFC0FFF7FFBFFDFDFF787BDFC0F083
:100CB000F787BC3DE1FF787BDE00F0F787BC3DE1C4
:100CC000F0787BDE0000F787803DE1E0787BDE0096
:100CD0007FF7879FFDE1E0787BDE00FFF787BFFDB0
:100CE000E1E0787BDE00F0F787BC3DE1E0787BDE79
:100CF00000F0F787BC3DE1E0787BDE00F0F787BCD1
:100D00003DE1E0787BDE00FFF7FFBFFDE1E07FFB28
:100D1000DFC0FFF7FFBFFDE1E07FFBDFC07CF3F347
:100D20009F3DE1E03E7BCFC00000000000000000DE
:100D3000000000FFFFFFFFFFFFFFFFFFFFC0FFFFFF
:100D4000FFFFFD68DB111A31C0FFFFFFFFFD2B5ACB
:100D5000FB6AEFC0FFFFFFFFFD4B5B3B1A33C0FF99
:100D6000FFFFFFFD6B5BDB6AFDC053534431333043
:100D70003620616C6C6F636174696F6E20666169A7
:100D80006C6564004D75746500566F6C756D6520FB
:100D90002D00566F6C756D65202B002200FF210021
:100DA00005010980A1018505150026FF001900290C
:100DB000FF950175088100C005010906A1018502A2
:100DC000050719E029E7150025017501950881023D
:100DD000050C95017508150026FF00190029FF81F3
:100DE00000050795067508150026E700190029E794
:100DF0008100C0050C0901A1018504150026FF032F
:100E000019002AFF03950475108100C01D20EC26EF
:100E100011241FBECFEFDAE0DEBFCDBF11E0A0E0AE
:100E2000B1E0E2ECF0E502C005900D92A23AB10704
:100E3000D9F723E0A2EAB1E001C01D92A43AB207BB
:100E4000E1F717E0C7E0D7E004C02197FE010E9458
:100E50001D27C630D107C9F70E94AB210C94542836
:100E60000C9400000895FC0180919202882311F1F6
:100E70003FB7F89482E08093E9002091F200822F3E
:100E800090E01816190614F481E090E0882339F0F8
:100E9000289844E6409391024091F1004083222338
:100EA00039F02091F200211103C02BE62093E800D5
:100EB0003FBF08958FEF9FEF0895089508954091E3
:100EC0008202509183022091800230918102421768
:100ED0005307B4F49091E8009570E1F39091E80025
:100EE00092FD19C08093F10080918202909183025B
:100EF00001968F739927892B19F48EEF8093E80060
:100F00008091820290918302019690938302809354
:100F1000820281E0089580E00895DF92EF92FF92CF
:100F20000F931F93CF93DF93D82E8A01EB017B01A0
:100F3000E40EF51ECE15DF0559F0D7FE12C0FE01F6
:100F400084910E945F0721968111F4CF0FEF1FEF6C
:100F5000C801DF91CF911F910F91FF90EF90DF902B
:100F600008958881EECF2FB7F89487708093E900B9
:100F70009091E800892F807295FF04C09091F20053
:100F800080E4891B2FBF0895615030F02091F1005B
:100F9000FC0120830196F8CF289884E68093910283
:100FA0000895AF92BF92CF92DF92EF92FF920F938C
:100FB0001F93CF93DF936C017B018B01040F151FEF
:100FC000EB015E01AE18BF08C017D10759F0699157
:100FD000D601ED91FC910190F081E02DC6010995BB
:100FE000892B79F7C501DF91CF911F910F91FF9068
:100FF000EF90DF90CF90BF90AF90089580917802EE
:1010000081110DC082E08093740284E080937502A8
:10101000109277021092760281E08093780284E742
:1010200092E008950F931F93CF93DF931F92CDB754
:10103000DEB782E0898342E450E069EE77E080E841
:101040000E948D070E94FE07DC0112960D911C91F3
:101050000115110589F0D801ED91FC910280F38111
:10106000E02DBE016F5F7F4FC801099597FD04C059
:10107000F80100851185ECCF89810F90DF91CF9128
:101080001F910F910895CF93DF931F92CDB7DEB7D5
:101090006983DC01ED91FC910280F381E02D41E058
:1010A00050E0BE016F5F7F4F09950F90DF91CF91A8
:1010B000089583E08093E9008091F200882319F07D
:1010C0008AE38093E800089583E00E94B30790E0EC
:1010D0000895CF93DF931F92CDB7DEB7FC018485CF
:1010E000958597FD08C02FEF3FEF358724870F9038
:1010F000DF91CF910895CE0101960E9433070197A9
:1011000019F4898190E0F3CF8FEF9FEFF0CF0F9329
:101110001F93CF93DF931F92CDB7DEB78C01FC01F5
:101120008485958597FF0BC0CE0101960E943307F9
:10113000019771F4898190E0F80195878487F8011F
:10114000848595850F90DF91CF911F910F91089520
:101150008FEF9FEFF1CFFC018485958597FD0BC044
:101160009FB7F89482E08093E9008091F2009FBFDE
:1011700090E0019608959FB7F89482E08093E9008B
:101180008091F2009FBF90E0089581508F3008F069
:1011900047C0E82FF0E0E153F74F0C941D27EC080F
:1011A000F008DE08E408E808100910091009F3083F
:1011B000F908FD080109070910090B098091800051
:1011C0008F77809380000895809180008F7DF9CF84
:1011D00080918000877FF5CF84B58F7784BD089597
:1011E00084B58F7DFBCF809190008F7780939000A6
:1011F0000895809190008F7DF9CF80919000877F36
:10120000F5CF8091C0008F778093C00008958091C2
:10121000C0008F7DF9CF8091C200877F8093C2008C
:101220000895CF93DF93282F30E0F901E653F84F6C
:101230008491F901E258F74FD491F901E555F74F40
:10124000C491CC23A1F081110E94C508EC2FF0E0DD
:10125000EE0FFF1FE454F84FA591B491EC91ED23EC
:1012600081E090E009F480E0DF91CF91089580E083
:1012700090E0FACFCF92DF92EF92FF922FB7F894DF
:101280008091290390912A03A0912B03B0912C0304
:101290002FBF8093310390933203A0933303B09315
:1012A0003403809130030E941109FC0120912D0329
:1012B00030E091E0E217F30709F090E090935103DA
:1012C00040913103509132036091330370913403A4
:1012D000A0914303B0914403C0903903D0903A03E6
:1012E000E0903B03F0903C03CA0EDB1EE11CF11CB6
:1012F00080E04C155D056E057F05E0F0E217F30711
:10130000F1F0809153038823D1F01092450340936C
:101310003D0350933E0360933F037093400381E08D
:10132000909353034093390350933A0360933B03E4
:1013300070933C03FF90EF90DF90CF90089580E092
:10134000EFCF1F93CF93DF93282F30E0F901E653BF
:10135000F84F8491F901E258F74FD491F901E5551E
:10136000F74FC491CC23A9F0162F81110E94C50814
:10137000EC2FF0E0EE0FFF1FE356F74FA591B4916D
:101380008FB7F894EC91111108C0D095DE23DC934F
:101390008FBFDF91CF911F910895DE2BF8CFCF93B0
:1013A000DF9390E0FC01E258F74F24918555974F69
:1013B000FC0184918823C9F090E0880F991FFC01FB
:1013C000E25AF74FA591B491FC01E356F74FC5914E
:1013D000D49161110DC09FB7F8948C912095822310
:1013E0008C938881282328839FBFDF91CF91089514
:1013F000623051F49FB7F8943C91822F80958323FB
:101400008C93E8812E2BEFCF8FB7F894EC912E2B95
:101410002C938FBFEACF3FB7F894809170029091E0
:101420007102A0917202B091730226B5A89B05C00B
:101430002F3F19F00196A11DB11D3FBFBA2FA92F53
:10144000982F8827BC01CD01620F711D811D911D50
:1014500042E0660F771F881F991F4A95D1F70895BC
:101460008F929F92AF92BF92CF92DF92EF92FF92B4
:101470004B015C010E940B0A6B017C010E940B0A6C
:101480006C197D098E099F09683E7340810591059D
:10149000A8F321E0821A9108A108B10888EEC80ECD
:1014A00083E0D81EE11CF11C81149104A104B10455
:1014B00029F7FF90EF90DF90CF90BF90AF909F9073
:1014C0008F9008957F928F929F92AF92BF92CF920A
:1014D000DF92EF92FF920F931F93CF93DF93C82E6B
:1014E0008B017A0180919202811110C08FEF9FEFE2
:1014F000DF91CF911F910F91FF90EF90DF90CF90F0
:10150000BF90AF909F908F907F90089580918602BA
:1015100080FF05C08091E00082608093E000CE2DC6
:10152000DF2DD12C8AEFB82E8C2D8770982E8C2D24
:101530008072882E8C2D8074782E9AE3A92E2097A5
:1015400019F4DD2009F452C08C2D0E94B3078111DB
:101550000AC0BA94BB2051F261E070E080E090E0F4
:101560000E94300AECCF8C171D0611F00CF08C2F66
:101570009FB7F8949092E9002091E80025FD02C001
:101580009FBFDDCF282F30E0C21BD30B882029F06E
:101590008150A0F01092F100FBCFF801C7FC0AC007
:1015A000815050F041914093F100FACF4491409323
:1015B000F10031968150D0F7020F131FDD2021F08A
:1015C000A092E800D12CDCCF8091E80085FD07C017
:1015D000A092E800DD24D394209791F2F3CF2097D6
:1015E00079F6772069F2A092E800CACF5D9884E688
:1015F00080938502C7017CCFCF93DF93EC0180916C
:101600001201882331F083E00E94620A181619063D
:1016100034F081E090E09B838A8380E090E0DF916A
:10162000CF910895DC01FB0112962C9112978481D1
:1016300095812817190641F491818081813A31F40E
:101640009D7F81E0913009F080E008958132E1F7DB
:101650009B3029F482811F968C9381E008959A3003
:1016600099F7828150968C93F8CFAF92BF92CF9228
:10167000DF92EF92FF920F931F93CF93DF931F920E
:10168000CDB7DEB77C0169836A01590141E050E0C2
:10169000BE016F5F7F4FFC0183810E94620A8C0153
:1016A00097FD0BC0F7018381A501B60180640E94FC
:1016B000620A080F191F97FD8C01C8010F90DF9176
:1016C000CF911F910F91FF90EF90DF90CF90BF903F
:1016D000AF900895DC01FB0188E4808389E4818375
:1016E00084E482831D969C911D979F709F5B9383DA
:1016F0001D968D919C9124E0969587952A95E1F70A
:101700008F708F5B848385E00895EF92FF920F9333
:101710001F93CF93DF93FB012081213871F5238143
:10172000223259F5DC0112964C9124813581421701
:10173000130619F5EC010B851C85F12CE12C011524
:10174000110589F0F801448155816281738180E837
:101750000E948D078F3F980749F0E80EF91ED801C7
:101760000D911C91ECCF81E08F87C701DF91CF9164
:101770001F910F91FF90EF90089590E080E0F6CFD9
:10178000CF93DF93CDB7DEB769970FB6F894DEBF7E
:101790000FBECDBFFC01DB018C918F5F8C939E014E
:1017A0002D5F3F4F8DE0D9011D928A95E9F729E021
:1017B000298384E08A8391E09D8383E08E832A8756
:1017C00021E22B879C879D879F8722E2288B27E039
:1017D0002B8B25E02C8B8E8B20E430E0388F2F8BE9
:1017E000998F82818B8395858685998B8A8B83815E
:1017F00080688D8B49E150E0BE016F5F7F4F80E0D4
:101800000E948D0769960FB6F894DEBF0FBECDBF5C
:10181000DF91CF910895CF93DF938091670281117B
:1018200067C081E080935A0280935B0220E632E039
:1018300030935D0220935C0210925F0210925E0270
:101840002DE131E03093570220935602109262024C
:1018500010926102109264021092630280936502FA
:101860008093660281EC809360020E94FE07FC0177
:10187000818190915A02482F490F5527551F4830B2
:1018800051059CF5A281B381109709F526E532E058
:1018900033832283208120935802809359028091C0
:1018A0005B02820F808320915C02A22FB0915D02C7
:1018B0008A2F821B8917C8F481813D91C82FD0E0FF
:1018C000C050DF4F38838F5F8183F2CFD9011896E4
:1018D0002D913C91199721153105C1F726E532E08C
:1018E00019963C932E931897D5CF81E08093670289
:1018F00086E592E0DF91CF9108950F931F93CF93E8
:10190000DF93EB018A010E940B0C9801AE0165E0A8
:10191000DF91CF911F910F910C94350BCF93DF93F3
:10192000EC010E940B0CAE014C5F5F4F28E030E0F1
:1019300062E0DF91CF910C94350B0F931F93CF93FF
:10194000DF93EB018A010E940B0C9801AE0164E069
:10195000DF91CF911F910F910C94350BCF93DF93B3
:10196000EC01E1E2F3E090E080E021913191019619
:10197000232B41F5880F991FFC01E15EFC4FD183B9
:10198000C08348E050E061E273E08FE193E00E94A1
:101990009D0CEFE1F3E087E293E022813381C217EF
:1019A000D30711F41382128232968E179F07A9F77C
:1019B00048E050E061E273E08FE193E0DF91CF9186
:1019C0000C949D0C8430910581F6DBCFEF92FF9251
:1019D0000F931F93CF93DF93EC01EC80FD806E1586
:1019E0007F050CF070C057FF04C0240F351F50E076
:1019F00040E08E819F81FA01E20FF31F8E179F074F
:101A00001CF49C01241B350B121613060CF05BC052
:101A1000922F842F8695869586958E9DD0018F9DD9
:101A2000B00D11246A0F7B1FAF8DB8A1A60FB71F91
:101A3000477049F188E0841B482F682F70E0FB0154
:101A4000EC54F84FE491281708F063C0621B710949
:101A50002FEF30E002C0359527956A95E2F7E22333
:101A60000130110539F0B0F10230110561F58C91AA
:101A7000E82702C08C91E82BEC93941720F12C817D
:101A80003D81A20FB31FE92FE41BE83078F002304C
:101A9000110521F58E2F9C9190959C932C813D8171
:101AA000A20FB31F88508830B0F7E770EE2359F0CB
:101AB000F0E0E455F84FE49101301105F9F010F130
:101AC0000230110519F1DF91CF911F910F91FF9015
:101AD000EF900895E0958C91E823CECF81E0011539
:101AE000110509F480E081959E2F8C932C813D8116
:101AF000A20FB31F98509830C0F7D7CF8C91E82B26
:101B0000EC93E1CFE0958C91E823FACF8C91E82714
:101B1000F7CF0130110509F4ADCFE0F20230110525
:101B200009F4A5CFAE0DBF1DAECF0F931F93CF937A
:101B3000DF9377FF04C0260F371F70E060E0DC0101
:101B40001496CD91DC91FB01E20FF31FCE17DF0756
:101B50001CF49E01261B370B121613064CF5FA01D6
:101B600057FD3796A3E0F595E795AA95E1F7EC9F29
:101B7000D001ED9FB00DFC9FB00D11246A0F7B1FAB
:101B8000DC015F96ED91FC91E60FF71F477055273A
:101B900081E090E001C0880F4A95EAF7482F0130B4
:101BA000110559F0A8F02E0F3F1F02301105E1F08A
:101BB000DF91CF911F910F9108952E0F3F1FE217D4
:101BC000F307B1F38191DF011197842B8C93F7CF49
:101BD00080952E0F3F1FE217F30751F39191DF011C
:101BE000119798239C93F7CFE217F30709F381919C
:101BF000DF01119784278C93F7CF0F931F93FA017E
:101C0000DC0156964C9156974230E9F04330A1F1F1
:101C1000413061F514964D915C91DA01AE1BBF0B1A
:101C2000FD01E21BF30B77FD0BC0DC0116964D9115
:101C30005C916417750724F4AB01BF010E94950DF8
:101C40001F910F91089514964D915C91DA01A61B96
:101C5000B70BBD0161507109DC0116964D915C9185
:101C6000DA01AE1BBF0BFD01E21BF30B77FDE8CFE2
:101C7000AF010E94E60CE4CF16964D915C91DA011B
:101C8000A61BB70BBD0161507109CDCF0F931F93F8
:101C9000FA01DC0156964C9156974230A9F0433038
:101CA00091F1413019F514964D915C91DA01AE1B1A
:101CB000BF0BFD013197F7FD04C0AB01BF010E94CE
:101CC000E60C1F910F91089514964D915C91DA01E5
:101CD000A61BB70BBD01DC0116964D915C91DA0194
:101CE000AE1BBF0BFD013197621B730BF7FDE9CFF4
:101CF000DC0116964D915C91E417F50714F7AF01DE
:101D00000E94950DDECF16964D915C91DA01A61BCF
:101D1000B70BBD01621B730BCECFFC0177FD64C016
:101D200080859185681779070CF05EC057FD5CC00F
:101D300082859385481759070CF056C086898230F2
:101D4000B1F0833029F1813041F484819581841B85
:101D5000950BAB01BC01615071092130310509F1CE
:101D600008F443C02230310509F463C0089584812A
:101D70009581DC01A61BB70BBD01615071098681FD
:101D80009781DC01A41BB50BAD0141505109E5CF92
:101D900086819781861B970BBA01AC01415051098E
:101DA000DCCFCA0157FD0796A3E095958795AA95C4
:101DB000E1F7A481B5818A9F90018B9F300D9A9F96
:101DC000300D1124620F731F078CF0A1E02DE60F78
:101DD000F71F4770552721E030E001C0220F4A95D8
:101DE000EAF78081822B80830895CA0157FD079608
:101DF00033E0959587953A95E1F7A481B5818A9F5F
:101E000090018B9F300D9A9F300D1124620F731F2C
:101E1000078CF0A1E02DE60FF71F4770552781E0F2
:101E200090E001C0880F4A95EAF780959081892358
:101E3000DACFCA0157FD079623E0959587952A9535
:101E4000E1F7A481B5818A9F90018B9F300D9A9F05
:101E5000300D1124620F731F078CF0A1E02DE60FE7
:101E6000F71F4770552721E030E001C0220F4A9547
:101E7000EAF780818227B7CF08958EBD00000DB4A8
:101E800007FEFDCF8EB508958CBD9DBD08950895C4
:101E9000FC016370668B8481958126813781613076
:101EA00039F0633029F0918780873387228708953E
:101EB000318720879387828708952F923F924F9290
:101EC0005F926F927F928F929F92AF92BF92CF92CA
:101ED000DF92EF92FF920F931F93CF93DF93CDB7D3
:101EE000DEB76A970FB6F894DEBF0FBECDBF9A8FEC
:101EF000898F7A8369834A01D22E18870F8337012D
:101F0000BC2CDC0159962D913C915A972115310535
:101F100009F015C118968D919C911997681779074A
:101F20000CF0D7C11A968D919C91481759070CF067
:101F3000D0C14C2C512CB6E0CB9E600D711D1124EC
:101F40007C876B87161617060CF0C3C1EA2DF0E0EC
:101F5000FA87E98793E0EE0FFF1F9A95E1F7F88B78
:101F6000EF87CF01840F951F181619060CF0B1C129
:101F7000A98DBA8D58968C91811104C0BFEABD1508
:101F800008F4D394A98DBA8DED91FC911197028438
:101F9000F385E02DCD010995B5E0DB9EC00111244C
:101FA000E981FA81FC83EB83312C212C9C0124559F
:101FB0003D4F388F2F8B4A2D50E05E8B4D8BEF8934
:101FC000F88DE20DF31D44919E828D82D12CC12C9F
:101FD00069817A81620D731D7A8B698B842F90E001
:101FE0009C8B8B8BE98DFA8DA081B18140FF82C0E3
:101FF000F1E0BF126FC0AF126DC01C96ED91FC9165
:102000002F813885A4014C0D5D1D69897A89898DE0
:102010009A8D0995EB89FC89F595E7954E2F5FEF31
:10202000C51AD50A6D817E818D899E89680F791FB9
:102030007E836D8398E0C916D10481F6AFEF2A1A2A
:102040003A0AEB81FC81E40DF51DFC83EB83F5E09E
:102050002F16310409F0B3CF2F81388526153705A7
:10206000B9F0A98DBA8DED91FC91B1E0BB1257C0CA
:10207000AB1255C069817A816B5F7F4F0088F1890F
:10208000E02D830128E030E0A401898D9A8D099527
:10209000A98DBA8DED91FC9111970688F789E02DF5
:1020A000CD016A960FB6F894DEBF0FBECDBFDF91AB
:1020B000CF911F910F91FF90EF90DF90CF90BF9045
:1020C000AF909F908F907F906F905F904F903F90D8
:1020D0002F9009941E96ED91FC91EF80F88409856C
:1020E0001A8592014D815E816B817C81898D9A8DEB
:1020F000099590CF2F8138852615370509F48ACFA9
:1021000031E0B31207C0A31205C01C96ED91FC91FB
:10211000930178CF1E96ED91FC917301E0CF6B8512
:102120007C85641975090684F785E02D73010F8598
:1021300018899201A401898D9A8D0995A9CFF90179
:1021400034969491329745915491D91AB7E0DB9E19
:10215000400D511D1124F901259134913C8B2B8B9D
:10216000FA0125903490FA013296749031963491A8
:10217000398B329664903196449041E04C1518F0BA
:102180004A1508F07FC0662D062C000C770B7C8367
:102190006B83842D042C000C990B9E838D83A98D59
:1021A000BA8DED91FC9111970284F385E02DCD015C
:1021B0000995512CD12CC12CEA2DF0E0FA87E98742
:1021C0002B2D30E03C872B87A401440D511D47FC8B
:1021D0005A95588F4F8B69817A81660D711D67FC06
:1021E0007A957E876D877989C71608F051CF2C2D97
:1021F00030E04D815E81420F531FA985BA854A9F09
:10220000C0014B9F900D5A9F900D1124FC01E80DC9
:10221000F91DF88BEF87852D612C4F89588D420F62
:10222000531F5E8B4D8B671408F050C044244394B9
:10223000480E877041F4C1010196EB89FC89E20DDB
:10224000F31DD4901C01D7FE19C0A98DBA8DED9154
:10225000FC91662D70E0B1E0BB1219C0AB1217C043
:102260002D853E85620F731F0484F585E02D2F8137
:1022700038854D895E89898D9A8D0995DD0C639429
:10228000842DD1CF1E821D821C821B8288CF4B8160
:102290005C81640F751FAB85BC856A9FC0016B9F15
:1022A000900D7A9F900D112469817A81680F791FB2
:1022B0000684F785E02DEF80F88409851A859D0155
:1022C0004F855889898D9A8D0995D8CF570CC3941D
:1022D0008ACF6A960FB6F894DEBF0FBECDBFDF91EE
:1022E000CF911F910F91FF90EF90DF90CF90BF9013
:1022F000AF909F908F907F906F905F904F903F90A6
:102300002F9008958F929F92AF92CF92EF92FF926B
:102310000F931F93CF93DF93EC01262F898D9A8D16
:10232000009709F051C06A30D1F41D861C868D8952
:1023300048E0849F900111248E859F85820F931F12
:102340009F878E8781E090E0DF91CF911F910F9161
:10235000FF90EF90CF90AF909F908F9008956D3049
:1023600089F3CC88AD888F898823C1F08C859D85C1
:1023700036E0C39E800D911D11244885598548176C
:10238000590764F44E855F851D861C8638E0A39E40
:10239000C0011124840F951F9F878E87EA88FB88D0
:1023A000088919894E855F856C857D85CE010E94DF
:1023B0005D0F2C898C859D8546E0249F800D911DA5
:1023C00011249D878C87BECF6A3069F41D861C86D8
:1023D000FC013896E4912D898E859F85E29F800DC2
:1023E000911D1124ADCF6D3009F4ACCFFC013496B2
:1023F0003491631708F4A6CF3296E491E61708F4F7
:10240000A1CFFC01329685909490462F431B342F28
:1024100047E0349F800C911C1124F40132963491D2
:102420003196E4913323A9F1EE2399F1CC88F4019C
:102430003596E491AD884F89442301F10E2E000CAE
:10244000FF0BE30FF11DCE9EA001CF9E500D112476
:102450006C857D85460F571F6885798564177507DC
:102460006CF44E855F851D861C86FC013896E491D0
:10247000AE9E400D511D11245F874E87EA88FB8870
:10248000088919894E855F856C857D85CE010E94FE
:102490005D0FF4013496E4912C898C859D85E29F33
:1024A000800D911D11248DCF6F927F928F929F92FC
:1024B000AF92BF92CF92DF92EF92FF920F931F9352
:1024C000CF93DF93EC016B015A0139014801E88198
:1024D000F9810284F385E02D0995E881F98102886C
:1024E000F389E02D87019301A501B601CE0109957D
:1024F000A501480D591D41505109E881F981028813
:10250000F389E02D9301B601CE010995E881F981A7
:102510000088F189E02D9401A501B601CE0109954D
:10252000C60CD71CB60161507109E881F981008899
:10253000F189E02D9401A501CE010995E881F98189
:102540000688F789E02DCE01DF91CF911F910F9181
:10255000FF90EF90DF90CF90BF90AF909F908F90C3
:102560007F906F9009946F927F928F929F92AF921B
:10257000BF92CF92DF92EF92FF920F931F93CF9370
:10258000DF935C01EB016A01490138018701DC013D
:10259000ED91FC916217730719F5641675062CF01E
:1025A000962D872D3A01C92ED82E96012619370966
:1025B0002F5F3F4F048CF58DE02DA301BE01C501B7
:1025C0000995DF91CF911F910F91FF90EF90DF90D0
:1025D000CF90BF90AF909F908F907F906F90089515
:1025E0004615570591F42617370724F0892D4B011E
:1025F000C22FD82F9E01281939092F5F3F4F068C13
:10260000F78DE02DA601B401DACF0284F385E02D29
:102610000995D501ED91FC910488F589E02D8301A0
:102620009401A601BE01C5010995D501ED91FC916A
:102630000688F789E02DC501DF91CF911F910F9199
:10264000FF90EF90DF90CF90BF90AF909F908F90D2
:102650007F906F900994EF92FF920F931F93DC018C
:102660001A960D911C911B9718962D913C911997D4
:10267000ED91FC9100A0F1A1E02D7B0150E040E044
:1026800070E060E009951F910F91FF90EF90089521
:102690004F925F926F927F928F929F92AF92BF9272
:1026A000CF92DF92EF92FF920F931F93CF93DF931E
:1026B0006C012B015A0139014801DC01ED91FC91BB
:1026C0000284F385E02D0995E201640C751CD601A6
:1026D000ED91FC91C615D7055CF40088F189E02DD9
:1026E00087019401A501BE01C60109952196EFCF8E
:1026F0000688F789E02DC601DF91CF911F910F91D8
:10270000FF90EF90DF90CF90BF90AF909F908F9011
:102710007F906F905F904F9009948F929F92AF92AD
:10272000BF92CF92DF92EF92FF920F931F93CF93BE
:10273000DF93EC015B014A016901E881F9810284C0
:10274000F385E02D099595012C0D3D1D2150310992
:10275000E881F9810488F589E02D78018401A401DC
:10276000B501CE010995E881F9810688F789E02D48
:10277000CE01DF91CF911F910F91FF90EF90DF90ED
:10278000CF90BF90AF909F908F9009948F929F921F
:10279000AF92BF92CF92DF92EF92FF920F931F936F
:1027A000CF93DF93EC015B014A0169017801E88175
:1027B000F9810284F385E02D0995C80CD91C8601A6
:1027C00001501109E881F9810488F589E02D95010E
:1027D000A401B501CE010995E881F9810688F78940
:1027E000E02DCE01DF91CF911F910F91FF90EF90DF
:1027F000DF90CF90BF90AF909F908F900994EF9211
:10280000FF920F931F93DC01ED91FC9100A0F1A1C9
:10281000E02D09951F910F91FF90EF9008950F9370
:102820001F93DC01ED91FC91068CF78DE02D09954D
:102830001F910F9108950F931F93DC01ED91FC916F
:10284000048CF58DE02D09951F910F910895DC0101
:10285000ED91FC910084F185E02D09943F924F9217
:102860005F926F927F928F929F92AF92BF92CF9220
:10287000DF92EF92FF920F931F93CF93DF935C0150
:102880007B014A016901390187E0680E711C93E000
:10289000759467949A95E1F72B01400E511E10E054
:1028A00000E0312CD0E0C0E0CE0187709927330CD6
:1028B000892B59F4FE0183E0F595E7958A95E1F7B8
:1028C000E00FF11FE80DF91D349037FE0AC021E03A
:1028D00030E0A701B5016C0F7D1F80E693E00E94F8
:1028E00027142196CC16DD06F9F68FEFE81AF80AC0
:1028F000060D171DE414F504A9F6DF91CF911F9181
:102900000F91FF90EF90DF90CF90BF90AF909F908E
:102910008F907F906F905F904F903F9008952F928F
:102920003F924F925F926F927F928F929F92AF925F
:10293000BF92CF92DF92EF92FF920F931F93CF93AC
:10294000DF9300D000D000D0CDB7DEB73C016A01E4
:102950003E832D83FC82EB825801A41AB50AB7FE90
:1029600003C0B194A194B1088D809E80861A970A05
:1029700097FE03C09194819491088A149B045CF0A3
:10298000902F812F0D811E819D838E839C2D8D2DF7
:102990006B01692F782F0C151D055CF09D818E81D0
:1029A0007E836D83692F782F902F812F8601C92E0A
:1029B000D82E1601201A310A2B012D813E81421A90
:1029C000530A57FE03C0519441945108710137FED8
:1029D00003C03FEFE31AF30AF594E7948D819E81DB
:1029E000861797075CF5A1E0B0E0BA83A983C0160B
:1029F000D1064CF1D301ED91FC910484F585E02DD5
:102A00002B813C81A8016D817E818A149B041CF07E
:102A10004D815E81B801C3010995E418F508F7FE00
:102A20000AC02D813E8189819A81280F391F3E83FA
:102A30002D83E20CF31C0F5F1F4FD9CF2FEF3FEF19
:102A40003A832983D4CF26960FB6F894DEBF0FBE03
:102A5000CDBFDF91CF911F910F91FF90EF90DF904D
:102A6000CF90BF90AF909F908F907F906F905F902E
:102A70004F903F902F900895089520910C02260FBB
:102A80003327331F21323105ECF420913002FC0151
:102A900090E080E0243069F082E00895A0910C027B
:102AA0002191AC0144515E4FA40FB52FB11D2C9361
:102AB0000196861798F380910C02680F60930C02C0
:102AC00080E0089581E008951092300281E08093C3
:102AD00032021092310261E082E00E94A10961E0BD
:102AE00083E00E94A109E9EBF0E080818E7F808382
:102AF00080818D7F808388E48093B80085E4809313
:102B0000BC000895CF93DF9391E09093EB0188236D
:102B1000B9F0C091B800D091BA008091BC008A7B16
:102B20008093BC0060E082E00E94A10960E083E045
:102B30000E94A1090E946415D093BA00C093B80006
:102B4000DF91CF910895E0918E0280918D02E81778
:102B500030F4F0E0EA53FE4F808190E008958FEF6B
:102B60009FEF089590918E0280918D022FEF3FEF9D
:102B7000981748F4E92FF0E0EA53FE4F208130E047
:102B80009F5F90938E02C901089580918D0290916C
:102B90008E02891B990B0895CF92DF92EF92FF92DC
:102BA0000F931F93CF93DF937C01CB018A01209178
:102BB0009602222389F0EB016B01C40ED51ECC15C1
:102BC000DD0569F06991D701ED91FC910190F081EB
:102BD000E02DC7010995F3CF642F0E943D15C80170
:102BE000DF91CF911F910F91FF90EF90DF90CF90E9
:102BF0000895CF93DF931F92CDB7DEB769832091FD
:102C000096022223F9F020919302203258F021E01D
:102C100030E0FC013383228390E080E00F90DF916D
:102C2000CF91089580919402E82FF0E0EA55FE4F8D
:102C3000998190838F5F809394028093930281E0C7
:102C400090E0ECCF61E0CE0101960E943D15F7CFF8
:102C5000CF92DF92EF92FF920F931F93CF93DF9368
:102C6000D091930281E0D13208F09CC0C0919502CE
:102C70000E940B0A6B017C018091300281116CC0B3
:102C800082E08093300281E0809332028FEF809364
:102C90002F0210925402D0935302A6EAB1E0E3E36C
:102CA000F2E080E0D8138DC0109255028091550259
:102CB000CC0FC82BC093550280913102813009F0AE
:102CC00084C0109231020E940B0A6B017C0180913A
:102CD00055028093BB008091E7019091E801A0919B
:102CE000E901B091EA01892B8A2B8B2BA1F00E947C
:102CF0000B0A0091E7011091E8012091E901309160
:102D0000EA016C197D098E099F0906171707280724
:102D1000390708F442C08091BC0083FDD8CF85EC10
:102D20008093BC000E940B0A6B017C0180913002F1
:102D3000823009F44CC080912F028F3F09F469C0A2
:102D400080912F02803209F466C080912F02803377
:102D500009F463C084E026C08091E7019091E80106
:102D6000A091E901B091EA01892B8A2B8B2B09F400
:102D700083CF0E940B0A0091E7011091E801209196
:102D8000E9013091EA016C197D098E099F09061746
:102D900017072807390708F06FCF8091E6010E94D6
:102DA000821585E01092940210929302109296027E
:102DB000DF91CF911F910F91FF90EF90DF90CF9017
:102DC00008959D9191938F5F6DCF85EEA9CF8091EE
:102DD000E7019091E801A091E901B091EA01892B06
:102DE0008A2B8B2B09F4A2CF0E940B0A0091E701DA
:102DF0001091E8012091E9013091EA016C197D09F7
:102E00008E099F09061717072807390708F08ECF84
:102E1000C4CF80E0C7CF82E0C5CF83E0C3CFEF92BD
:102E2000FF920F931F93CF93DF937C01C62F809166
:102E30007D0390917E03009709F459C0209181038E
:102E400031E03093960220939502109294021092F2
:102E50009302DC01ED91FC910190F081E02D60E0A6
:102E600009958701EE24E394F12CD1E0C1508091C3
:102E70007D0390917E03CF3F91F1B0E2EB16F10418
:102E8000D8F00E94281680917D0390917E032091B6
:102E90008103D0939602209395021092940210928F
:102EA0009302DC01ED91FC910190F081E02D60E056
:102EB0000995EE24E394F12C80917D0390917E039B
:102EC000F8016491DC01ED91FC910190F081E02D1D
:102ED0000995BFEFEB1AFB0A0F5F1F4FC7CFDF91BA
:102EE000CF911F910F91FF90EF900C942816E091D5
:102EF0008D03F0918E0390818091930380958923B7
:102F000080838701C15008F438C0F8018491209172
:102F10007B0330917C03232B29F00E943D0F0F5F30
:102F20001F4FF0CF28E030E040E8E0918903F091B6
:102F30008A0390919103582F5423D9F05081952BF7
:102F40009083E0918B03F0918C03908150919203D8
:102F5000952B9083E0918B03F0918C03508190919D
:102F60009203909595239083469521503109E9F677
:102F7000D6CF508190959523E3CFDF91CF911F91CC
:102F80000F91FF90EF9008951F93CF93DF93EC0183
:102F90008D8D9E8D009721F1162F29A131E0309360
:102FA0009602209395021092940210929302DC01F3
:102FB000ED91FC910190F081E02D60E009958D8DFF
:102FC0009E8DDC01ED91FC910190F081E02D612F4F
:102FD00009958D8D9E8DDF91CF911F910C942816B0
:102FE000ADA5BEA59C918BA9809589238C938B8DD3
:102FF0009C8D892B31F0862FDF91CF911F910C94FE
:103000003D0F28E030E080E8A9A5BAA599A9462F90
:103010004823C1F04C91942B9C93ABA5BCA59C91EB
:103020004AA9942B9C93ABA5BCA54C919AA99095C9
:1030300094239C9386952150310931F7DF91CF91EC
:103040001F9108954C9190959423E6CFDF92EF92D3
:10305000FF920F931F93CF93DF9380917D03909105
:103060007E03892B09F498C0209195033091960333
:10307000409197035091980360E074E284EF90E0F0
:103080000E94FB2620513109410951095695479567
:10309000379527952093B80065E08BE99DE00E9465
:1030A0000F1760916403615080E693E00E94C4179B
:1030B0002091660330916703C901079697FD079633
:1030C00033E0959587953A95E1F720916403309127
:1030D0006503829F8001839F100D929F100D112424
:1030E000C0917F03D091800380917D0390917E03F6
:1030F0000C0F1D1F009709F48FC02091810331E050
:1031000030939602209395021092940210929302AB
:10311000DC01ED91FC910190F081E02D60E40995D6
:10312000EE24E394F12CDD24D39480917D039091DF
:103130007E030C171D0709F446C0B0E2EB16F1043C
:10314000D8F00E94281680917D0390917E032091F3
:103150008103D092960220939502109294021092CD
:103160009302DC01ED91FC910190F081E02D60E48F
:103170000995EE24E394F12C80917D0390917E03D8
:103180006991DC01ED91FC910190F081E02D0995B0
:10319000BFEFEB1AFB0AC9CF80917B0390917C03B0
:1031A000892B31F080919E0390919F030E94440FE0
:1031B000E0918F03F091900390818091940380952A
:1031C0008923808369CF0E94281680917D03909186
:1031D0007E03892B09F461C02091990330919A03F1
:1031E00040919B0350919C0360E074E284EF90E077
:1031F0000E94FB26205131094109510956954795F6
:10320000379527952093B800DF91CF911F910F91AB
:10321000FF90EF90DF900895E0918D03F0918E0381
:10322000808190919303892B80830C171D0769F28D
:10323000899120917B0330917C03232B19F00E940C
:103240003D0FF3CF28E030E040E8E0918903F091B2
:103250008A0390919103582F5423D9F05081952BD4
:103260009083E0918B03F0918C03908150919203B5
:10327000952B9083E0918B03F0918C03508190917A
:103280009203909595239083469521503109E9F654
:10329000CCCF508190959523E3CFE0918F03F091AF
:1032A0009003808190919403892B8083ADCF1F93ED
:1032B000CF93DF93EC01162F8D8D9E8D892BB1F16D
:1032C0002DA93EA94FA958AD60E074E284EF90E0CB
:1032D0000E94FB2620513109410951095695479515
:1032E000379527952093B80066EA111167EACE0159
:1032F0000E94C4178D8D9E8D892B41F129AD3AAD69
:103300004BAD5CAD60E074E284EF90E00E94FB2680
:10331000205131094109510956954795379527950F
:103320002093B800DF91CF911F9108958B8D9C8DD4
:10333000892B21F08EAD9FAD0E94440FEFA5F8A917
:1033400090818CA9809589238083CECFEFA5F8A9A1
:1033500080819CA9892B8083E5CF90E080E008954F
:10336000FC019C01285F3F4F90E080E044814111C7
:10337000019614823196E217F307C1F70895CF93AF
:10338000DF9385E093E00E94B019EC01892B21F0D6
:1033900085E093E00E948E0CCE01DF91CF910895DD
:1033A000CF93DF93DC0190E2960F9830B0F414963F
:1033B0008C91149721E030E001C0220F9A95EAF732
:1033C000442341F0282B14962C9381E090E0DF9168
:1033D000CF91089520952823F6CFFD0136964423FA
:1033E000D1F0CD010C96EF012991621771F3C81746
:1033F000D907D1F790E080E02191211105C0A80FF5
:10340000B91F16966C93E1CF019686309105A1F70E
:1034100090E080E0DCCF90E080E02191621305C075
:10342000A80FB91F16961C92D0CF01968630910531
:10343000A1F7EECFCF93DF9341E0682F85E093E0D3
:103440000E94D019EC01892B21F085E093E00E94C5
:103450008E0CCE01DF91CF910895CF92DF92FF9233
:103460000F931F93CF93DF938C01F42EE62FF0E0A0
:10347000EE0FFF1FE455FF4FC590D490D801ED919A
:10348000FC910484F585E02D6C2DC8010995EC01B3
:10349000892B11F4F11070C0D0FE0CC0D801ED9151
:1034A000FC910484F585E02D4F2D60EEC80109954F
:1034B000C82BD92BD1FE0CC0D801ED91FC9104840E
:1034C000F585E02D4F2D61EEC8010995C82BD92B4C
:1034D000D2FE0CC0D801ED91FC910484F585E02D5D
:1034E0004F2D62EEC8010995C82BD92BD3FE0CC015
:1034F000D801ED91FC910484F585E02D4F2D63EE0C
:10350000C8010995C82BD92BD4FE0CC0D801ED9168
:10351000FC910484F585E02D4F2D64EEC8010995DA
:10352000C82BD92BD5FE0CC0D801ED91FC91048499
:10353000F585E02D4F2D65EEC8010995C82BD92BD7
:10354000D6FE0CC0D801ED91FC910484F585E02DE8
:103550004F2D66EEC8010995C82BD92BD7FE0CC09C
:10356000D801ED91FC910484F585E02D4F2D67EE97
:10357000C8010995C82BD92BCE01DF91CF911F919E
:103580000F91FF90DF90CF9008950F931F93CF93EB
:10359000DF93EC0141E00E942D1A8C01892B39F058
:1035A000E881F9810284F385E02DCE010995C801F7
:1035B000DF91CF911F910F910895FF920F931F9369
:1035C000CF93DF93EC01F62E0E94C51A8C01892B54
:1035D00071F040E06F2DCE010E942D1A892B39F039
:1035E000E881F9810284F385E02DCE010995C801B7
:1035F000DF91CF911F910F91FF9008952091660365
:1036000030916703C901079697FD079623E09595CA
:1036100087952A95E1F72091640330916503829F95
:10362000A001839F500D929F500D112470E060E027
:1036300080917F03909180030C944D28CF92DF926C
:10364000EF92FF928FB7F894C0902903D0902A038D
:10365000E0902B03F0902C038FBF0E9426188091DE
:10366000A2019091A301A091A401B091A501A7018D
:103670009601281B390B4A0B5B0BDA01C901C29773
:10368000A105B10550F00E94FE1AC092A201D0928D
:10369000A301E092A401F092A501FF90EF90DF90CA
:1036A000CF9008950E944828FB0101900020E9F77F
:1036B0003197AF01461B570BDC01ED91FC91028065
:1036C000F381E02D0994EF92FF920F931F93CF9314
:1036D000DF938C017B01D0E0C0E0F701EC0FFD1F10
:1036E0006491662361F0D801ED91FC910190F08125
:1036F000E02DC8010995892B11F02196EECF63E9E1
:1037000071E0C8010E94541B8C0F9D1FDF91CF9167
:103710001F910F91FF90EF90089585ED8093BC006D
:103720008091E7019091E801A091E901B091EA014F
:103730000796A11DB11D23E0B695A795979587958E
:103740002A95D1F72091BC0024FD03C010923002CD
:1037500008954091E7015091E8016091E90170916D
:10376000EA01452B462B472B69F30097A105B105CC
:1037700041F025E32A95F1F700000197A109B1096D
:10378000E1CF8091E6010C9482151F920F920FB643
:103790000F9211248F939F938091E1009091E1000B
:1037A000937F9093E10083FF0FC01092E90091E0B6
:1037B0009093EB001092EC0092E39093ED00109246
:1037C000920298E09093F00082FF22C093E09093E1
:1037D000E9009091F200992319F09AE39093E800A0
:1037E00090918502992341F0909185029150909398
:1037F0008502911101C05D9A90919102992341F047
:1038000090919102915090939102911101C0289A48
:1038100084FF18C08091E2008E7E81608093E20078
:103820008091E1008F7E8093E100809186028E7E00
:103830008061809386029F918F910F900FBE0F90B1
:103840001F90189580FFF7CF8091E2008E7E8061F7
:103850008093E2008091E1008E7E8093E100809170
:1038600086028E7E8160E5CF1F920F920FB60F9277
:103870001124CF92DF92EF92FF920F931F932F9319
:103880003F934F935F936F937F938F939F93AF93E8
:10389000BF93EF93FF93CF93DF93CDB7DEB76C97D2
:1038A000DEBFCDBF1092E9008091E80083FF25C004
:1038B00068E0CE0145960E94C40782EF8093E8003D
:1038C0008D8987FF39C09091E80090FFFCCF982F39
:1038D000907609F034C19E894F89588D2F89F88CD4
:1038E000911131C0803861F5809187028093F10099
:1038F0001092F1008EEF8093E8006C960FB6F8946A
:10390000DEBF0FBECDBFDF91CF91FF91EF91BF9191
:10391000AF919F918F917F916F915F914F913F9167
:103920002F911F910F91FF90EF90DF90CF900F900C
:103930000FBE0F901F9018959EEF9093E800C7CF91
:103940001092F100D5CF913059F48111D3CF41308D
:10395000510581F6809187028D7F80938702CACFBF
:10396000933049F48111C6CF4130510519F6809149
:1039700087028260F2CF953041F48091E80080FFA9
:10398000FCCF20682093E300B5CF963009F0A9C0A2
:103990000B8D1C8D22E01092E90010928302109290
:1039A0008202F2122EC010928102109280020E94B6
:1039B00012081F8299E09983FA8291E09E8390EA2F
:1039C00098879AEF99872091820230918302275F2E
:1039D0003F4F3C832B838D831092E900109283022A
:1039E00010928202109381020093800249E050E01D
:1039F000BE016F5F7F4F80E00E948D070E9412081A
:103A000079CF10938102009380020E94FE07DC01AF
:103A100012960D911C910115110509F451C1D8019F
:103A2000ED91FC910480F581E02DBE016B5E7F4F2E
:103A3000C8010995009709F03EC1F801008511857C
:103A4000EACFF3E0FF120EC08F89882309F440C04B
:103A5000823061F440E860E18DE498E00E94CF1F7D
:103A6000811148CF81E28093EB0047CF813029F468
:103A700040E86BE081E498E0F1CF833099F70E9451
:103A8000FE07DC011296ED90FC908E010F5F1F4F38
:103A90006801E114F10479F0D701ED91FC91068001
:103AA000F781E02DB801C7010995080F111DF70135
:103AB000E084F184EECFD8011C92F6010190002041
:103AC000E9F73197BF016C197D0940E0C601C6CF07
:103AD0006BE278E0FB01449150E080E80E948D07A2
:103AE00009CF973009F4BECF983021F481E080935C
:103AF000F10000CF993009F0FDCE837009F0B2CF0C
:103B0000E1E0F1E081E031E096E32191222371F0E0
:103B10008093E9003093EB00DF0111972C91209303
:103B2000EC009093ED008F5F873079F78EE78093FC
:103B3000EA001092EA008F8980939202DBCE8B8D8F
:103B40009C8D1092E9001092830210928202909351
:103B5000810280938002898D811192C08E899D8916
:103B6000913A49F4813209F07DCF47E050E06BE0B3
:103B700071E080E0B3CF913209F074CF833269F401
:103B80008F89988DB0E0A0E08093070190930801A1
:103B9000A0930901B0930A01ADCE803269F48091FF
:103BA000E80082FFFCCF67E08BE091E00E94C40751
:103BB0008BEF8093E8009ECE823209F09BCE8F89F6
:103BC00080931201EEEFFFE7859194918B3F9C4D1E
:103BD00051F1E0E0F8E080910B0190910C01A0918F
:103BE0000D01B0910E01803B9440A105B105F1F4A7
:103BF0008091120180FD1AC0EE3F8AE0F80789F536
:103C000087E797E7918380838091600080938402A7
:103C100088E19BE00FB6F894A895809360000FBEF2
:103C20009093600067CEEEEFFAE0D5CF808191816E
:103C30008737974709F05ECEA8958091600088612C
:103C4000809360008091840280936000EE3F2AE0C0
:103C5000F20789F08091FE0A9091FF0A9183808398
:103C600049CE808191818737980751F29093FF0A5E
:103C70008093FE0AC5CF1092FF0A1092FE0A3ACE38
:103C80000E94FE07DC0112960D911C910115110591
:103C900009F4E8CED801ED91FC910190F081E02D7E
:103CA000BE016B5E7F4FC8010995811123CEF801DB
:103CB00000851185EBCF181619060CF41BCED2CE59
:103CC000F1E0FF12BECE6FE278E004CF1F920F92B8
:103CD0000FB60F9211242F933F938F939F93AF931F
:103CE000BF938091290390912A03A0912B03B09157
:103CF0002C0330916F0223E0230F2D3758F50196E6
:103D0000A11DB11D20936F028093290390932A0374
:103D1000A0932B03B0932C038091700290917102B9
:103D2000A0917202B09173020196A11DB11D809302
:103D3000700290937102A0937202B0937302BF91CC
:103D4000AF919F918F913F912F910F900FBE0F9048
:103D50001F90189526E8230F0296A11DB11DD2CF02
:103D60001F920F920FB60F9211242F933F934F93F0
:103D70005F936F937F938F939F93AF93BF93EF93D3
:103D8000FF938091B900887F803609F44AC0F0F52E
:103D9000883209F4A7C018F5803109F49BC0B8F443
:103DA000882309F4F9C0883009F494C0FF91EF9199
:103DB000BF91AF919F918F917F916F915F914F9143
:103DC0003F912F910F900FBE0F901F901895883143
:103DD00009F488C0803251F780932F0214C08034D8
:103DE00009F49DC040F48033B9F38833F9F6809329
:103DF0002F0285ECB0C0803509F485C0883509F400
:103E000096C0883499F60E948D1BD0CF883909F46A
:103E10008CC038F5883729F050F4883611F0803797
:103E200029F683E08093300210922E0257C0883822
:103E300009F47BC0803919F0803809F0B7CF809140
:103E40002E02803208F071C0E0912E0281E08E0FC8
:103E500080932E028091BB00F0E0E25FFD4F8083F3
:103E60003DC0803B39F0E0F4803A09F479C0883AEB
:103E700009F09CCF84E08093300210920D021092E2
:103E80000C02E0918B02F0918C02099580910C025A
:103E900081110FC081E080930C021092EC0109C0E7
:103EA000803C09F4A6CF883C09F4A3CF883B09F0F5
:103EB0007DCFE0910D0281E08E0F80930D02F0E046
:103EC000E451FE4F80818093BB0090910D02809160
:103ED0000C0229C0809155028093BB0085EC809331
:103EE000BC0064CF9091540280915302981758F50A
:103EF000E091540281E08E0F80935402F0E0ED5C7B
:103F0000FD4F8081E9CFE091540281E08E0F8093D4
:103F100054028091BB00F0E0ED5CFD4F80839091F6
:103F20005402809153029817C8F285E8D8CFE091E7
:103F3000540281E08E0F809354028091BB00F0E028
:103F4000ED5CFD4F80838091320281115CCF81E076
:103F50008093310284EA8093BC001092300226CF15
:103F600085EC8093BC001092300280912E0280324A
:103F700030F4E0912E02F0E0E25FFD4F108260919C
:103F80002E0270E0E0918902F0918A028EE092E0C8
:103F9000099510922E020ACF10922F0234CFEF9281
:103FA000FF920F931F93CF93DF93F82E192FE62ED6
:103FB000042F81E0860F880F0E945F0783E00E9434
:103FC0005F07CF2DD12FEC0EFD2EF11CCE15DF0596
:103FD000B9F007FF13C0FE0184910E945F07182FFC
:103FE00080E00E945F07812321968111EFCFDF914E
:103FF000CF911F910F91FF90EF9008958881EDCFA1
:1040000081E0F5CFFC01A385B485109771F4748726
:10401000638785859685DB0114962D913C91820FEF
:10402000931F968785870895DC018D919C91119748
:104030000097D1F76D937C93ECCF10929A02109277
:10404000990288EE93E0A0E0B0E080939B02909309
:104050009C02A0939D02B0939E0289E291E090930E
:104060009802809397028FEF9FEF9093A402809322
:10407000A3028BE391E09093F6028093F502809186
:10408000ED02811113C01092E8021092E70280EA5B
:104090009DE09093EA028093E90288E190E090939A
:1040A000EC028093EB0281E08093ED020E940B0C06
:1040B00067EE72E00E94022010920803109207033C
:1040C00081E491E090930603809305038091FD02C3
:1040D000811113C01092F8021092F70288EB9DE054
:1040E0009093FA028093F9028BE390E09093FC02A4
:1040F0008093FB0281E08093FD020E940B0C67EF2E
:1041000072E00E94022083E591E090932003809367
:104110001F0380911703811113C010921203109294
:10412000110383EF9DE0909314038093130389E1BF
:1041300090E0909316038093150381E0809317031A
:104140000E940B0C61E173E00E9402201092570361
:104150001092560388EE93E0A0E0B0E080935803FD
:1041600090935903A0935A03B0935B0389E591E0C0
:10417000909355038093540310926303109262034B
:1041800020E830E0309365032093640380E290E000
:1041900090936703809366033093690320936803C9
:1041A00090936B0380936A031092760310926D03D1
:1041B00010926C0310926F0310926E0381E0809353
:1041C0007503809374032FEF3FEF309373032093B5
:1041D00072033093710320937003809377031092DE
:1041E000780310927A03109279032BE631E0309332
:1041F00061032093600310927C0310927B0324E5FB
:1042000033E030937E0320937D031092800310925D
:104210007F039FEF9093840390938503909386038D
:104220009093870394E09093880340E85AE166E016
:1042300070E04093950350939603609397037093B7
:10424000980340EA56E861E070E040939903509388
:104250009A0360939B0370939C0390E590939E0355
:1042600010929F0380932D0382E090E0909342038D
:104270008093410388EC90E0909344038093430340
:1042800010924503109246031092470384E690E093
:1042900090934D0380934C0310924E0310924F0362
:1042A0001092500310925103109252031092530334
:1042B00088E080932E0387E080932F0386E080932D
:1042C00030032FB7F8948091290390912A03A0918D
:1042D0002B03B0912C032FBF8093310390933203B3
:1042E000A0933303B0933403809335039093360344
:1042F000A0933703B09338038093390390933A0324
:10430000A0933B03B0933C038093480390934903ED
:10431000A0934A03B0934B0380912D03813079F42D
:1043200062E080912E030E94CF0962E080912F030A
:104330000E94CF0962E0809130030C94CF0960E0C5
:1043400080912E030E94CF0960E080912F030E948C
:10435000CF0960E0F0CFCF93DF93CDB7DEB7A6975C
:104360000FB6F894DEBF0FBECDBF789484B58260DF
:1043700084BD84B5816084BD85B5826085BD85B509
:10438000816085BD80916E00816080936E00109287
:104390008100809181008260809381008091810002
:1043A0008160809381008091800081608093800093
:1043B0008091910082608093910080919100816052
:1043C0008093910080919000816080939000809113
:1043D000C10084608093C1008091C100826080939D
:1043E000C1008091C10081608093C1008091C300B1
:1043F00081608093C3008091C00082608093C00080
:104400008091C20081608093C20080917A008460B4
:1044100080937A0080917A00826080937A00809104
:104420007A00816080937A0080917A00806880931E
:104430007A00109292021092870210928602809166
:10444000D70081608093D70080EA8093D80089B537
:10445000806189BD89B5826089BD09B400FEFDCF48
:1044600061E070E080E090E00E94300A8091D80026
:104470008F7C80618093D8008091E000807F809362
:10448000E0008091E1008E7E8093E1008DE08093DA
:10449000E200559A209A8FEF9FEF9093A4028093A9
:1044A000A30280917F0390918003892B41F5209195
:1044B000660330916703C901079697FD0796B3E03D
:1044C00095958795BA95E1F720916403309165033E
:1044D000AC01429FC001439F900D529F900D11244B
:1044E0000E9423279093800380937F03892B39F4C4
:1044F0006AE67DE087E992E00E94631BFFCF0E949D
:10450000FE1A2091660330916703809164039091B5
:104510006503B901213231050CF421C360547109DE
:1045200077FF02C06F5F7F4F759567958255910940
:1045300097FD019600E410E022E530E04AEA5AE0F7
:10454000959587950E942E1482E080938203809136
:104550007D0390917E03892B09F414C38CE380932F
:10456000810310928E0210928D021092940210928A
:1045700093020E9464158DE597E090938C028093DE
:104580008B028EE597E090938A0280938902809156
:10459000880387FD1EC061E00E94CF0961E0809121
:1045A00088030E94A10961E070E080E090E00E9431
:1045B000300A60E0809188030E94A1096AE070E0FF
:1045C00080E090E00E94300A61E0809188030E94C0
:1045D000A10980917D0390917E03892B09F491C3F9
:1045E0002091950330919603409197035091980341
:1045F00060E074E284EF90E00E94FB2620513109D4
:104600004109510956954795379527952093B8004C
:1046100064E08AE798E00E940F176091660361509A
:1046200080E693E00E94C41764E086E798E00E9469
:104630000F178091820360E1813009F064E180E628
:1046400093E00E94C41764E082E798E00E940F178D
:104650008FE880939D038091640390916503803877
:10466000910509F067C380916603909167038034D8
:10467000910509F06FC380918203813009F058C31E
:104680008FE980939D0312E16AED80E693E00E943A
:10469000C417612F80E693E00E94C41761E880E6AA
:1046A00093E00E94C41760919D0380E693E00E940E
:1046B000C41769ED80E693E00E94C41780918203DD
:1046C00062E2813009F061EF80E693E00E94C41756
:1046D00066E08CE698E00E940F1780917D03909130
:1046E0007E03892B09F43AC32091990330919A03F0
:1046F00040919B0350919C0360E074E284EF90E052
:104700000E94FB26205131094109510956954795D0
:10471000379527952093B80062E080E693E00E94E9
:10472000480F0E94261860ED77E080E090E00E943C
:10473000300A0E94FE1A21E030E04AE050E06AE0D0
:1047400070E080E693E00E948D0E0E94261860EDD6
:1047500077E080E090E00E94300AE1E2F3E088E058
:10476000DF011D928A95E9F748E050E0BF018FE133
:1047700093E00E949D0C68EE73E080E090E00E9460
:10478000300A62E086E00E94CF0960E087E00E9484
:10479000CF0960E088E00E94CF0962E082E00E94D9
:1047A000CF0962E083E00E94CF0962E084E00E94CA
:1047B000CF0962E085E00E94CF0992E0992E2AE0BD
:1047C000422E512C612C712C30E0A32E30E0B32E00
:1047D0003324339482E8882E909274039092750368
:1047E000E1E0F0E0F0937303E0937203F093710360
:1047F000E093700310926D0310926C0310926F039C
:1048000010926E038FB7F8944091290350912A03B8
:1048100060912B0370912C038FBF40933103509311
:10482000320360933303709334032091410330913A
:1048300042038091350390913603A0913703B091E4
:104840003803820F931FA11DB11D00E048175907BF
:104850006A077B0708F45BC080912E030E94110950
:1048600030912D0321E03817190609F020E020933C
:104870004F0380912F030E94110920912D0330E0F6
:1048800041E08217930709F040E040935003E09124
:104890004F03409131035091320360913303709183
:1048A0003403E11168C2F0915203FF2309F463C29B
:1048B00001E08217930709F002E020914C03309148
:1048C0004D038091480390914903A0914A03B09110
:1048D0004B03820F931FA11DB11D481759076A078B
:1048E0007B0708F045C200914E0340934803509364
:1048F000490360934A0370934B03E0935203409340
:10490000350350933603609337037093380310E0F8
:104910000E943A09E82EF12C0E943A098091510335
:1049200081112BC280915303811127C280913103E1
:104930009091320320913D0330913E03AC01421B24
:10494000530B9A014091310350913203609133032C
:1049500070913403DB01CA01820F931FA11DB11DA9
:1049600048515C4F6F4F7F4F481759076A077B07C5
:1049700008F006C280914503811102C230924503BE
:104980002224239482E00E941109892BB1F483EE42
:104990000E941A1A64E685E093E00E94C51A64E654
:1049A00070E080E090E00E94300A0E94BF196CE243
:1049B00071E080E090E00E94300A83E00E941109DB
:1049C000892B89F48BE30E941A1A64E670E080E078
:1049D00090E00E94300A0E94BF1964E670E080E017
:1049E00090E00E94300A85E00E941109892B91F421
:1049F0008DEC90E00E94AE0C64E670E080E090E008
:104A00000E94300A0E94BF1964E670E080E090E0E6
:104A10000E94300A84E00E941109892B89F48FE3F7
:104A20000E941A1A64E670E080E090E00E94300A6A
:104A30000E94BF1964E670E080E090E00E94300AB6
:104A40000130110509F09EC180918F029091900272
:104A500001969093900280938F0289EE90E00E94DD
:104A6000AE0C62E97DE080E693E00E94631B0E9449
:104A70001E1B91E0E916F10461F482EE90E00E94C1
:104A8000AE0C64E87DE080E693E00E94631B0E9428
:104A90001E1BA1E02A1214C08AA241E050E0BE0110
:104AA0006E5D7F4F85EF92E00E947D0C198241E0A0
:104AB00050E0BE016F5F7F4F85EF92E00E947D0C5A
:104AC000015011090230110530F0EA94EF2819F075
:104AD000E1E02E123DC066E971E087E992E00E94B4
:104AE000541BC0908F02D09090020D2C000CEE0849
:104AF000FF08F7FE5BC16DE287E992E00E94430880
:104B000022273327A9012C193D094E095F0919A253
:104B10008E010F5D1F4FCA01B901A30192010E94CE
:104B2000FB26605DD8016E938D012115310541058D
:104B3000510589F70115110529F0B80187E992E0BF
:104B40000E94541B63E971E087E992E00E94541BC4
:104B5000A114B10409F440CE0E94000039CE605285
:104B6000710977FF02C06F5F7F4F75956795835717
:104B7000910997FD019600E210E023E730E04AEC4E
:104B800058E0DECC61E0809186030E94CF0961E0AD
:104B9000809187030E94CF0980918603082E000C24
:104BA000990BFC01E555F74FE491F0E0EE0FFF1F84
:104BB000E356F74F2591349130938E0320938D0364
:104BC000FC01E258F74FE491E0939303809187034F
:104BD000082E000C990BFC01E555F74FE491F0E02D
:104BE000EE0FFF1FE356F74FA591B491B0939003DA
:104BF000A0938F03FC01E258F74FE491E0939403F4
:104C00008C91E82BEC9380917B0390917C03892B12
:104C100009F434C01FB7F89480918802811127C02D
:104C2000ECEBF8E08491EFE8F8E09491E82FF0E005
:104C3000EE0FFF1FE25AF74FA591B491EC91E923D3
:104C400021F461E081E10E94A10961E081E10E941B
:104C5000CF098CB580618CBD8CB580648CBD61E062
:104C60008FE00E94CF0961E080E10E94CF0980912E
:104C700088028F5F809388021FBF89CC61E080919A
:104C800084030E94CF0961E0809185030E94CF09CF
:104C900080918403082E000C990BFC01E555F74F19
:104CA000E491F0E0EE0FFF1FE356F74F25913491AA
:104CB00030938A0320938903FC01E258F74FE49173
:104CC000E093910380918503082E000C990BFC0161
:104CD000E555F74FE491F0E0EE0FFF1FE356F74F75
:104CE000A591B491B0938C03A0938B03FC01E2587F
:104CF000F74FE491E09392038C91E095E823EC93D5
:104D000046CC80917B0390917C03892B31F080917C
:104D10009E0390919F030E94440FE0918F03F091B6
:104D2000900390818091940380958923808370CC37
:104D30008FECA7CC8036910569F480916603909141
:104D40006703409739F480918203813029F480E130
:104D500080939D0312E098CC8FEAFACFE0918F0305
:104D6000F0919003808190919403892B8083D4CC1F
:104D700000934E03BACD00E0C0CD30E020E0E2CD9C
:104D8000212C00CE0230110509F073CE80918F02E4
:104D90009091900201979093900280938F028AEEF7
:104DA00090E00E94AE0C69E87DE05DCEA70196011F
:104DB00019A28E010F5D1F4FCA01B901A301920113
:104DC0000E94FB26605DF80162938F012115310579
:104DD0004105510589F7AECE8BE691E090936103D2
:104DE0008093600380917F0390918003009711F07E
:104DF0000C94BF270895A1E21A2EAA1BBB1BFD012C
:104E00000DC0AA1FBB1FEE1FFF1FA217B307E407A9
:104E1000F50720F0A21BB30BE40BF50B661F771F01
:104E2000881F991F1A9469F76095709580959095E1
:104E30009B01AC01BD01CF010895EE0FFF1F05904E
:104E4000F491E02D09940F931F93CF93DF93823059
:104E5000910510F482E090E0E091A203F091A303A9
:104E600030E020E0B0E0A0E0309799F42115310562
:104E700009F44AC0281B390B24303105D8F58A8142
:104E80009B816115710589F1FB0193838283FE018A
:104E900011C0408151810281138148175907E0F008
:104EA0004817590799F4109761F012960C931297CE
:104EB00013961C933296CF01DF91CF911F910F91E2
:104EC00008950093A2031093A303F4CF2115310595
:104ED00051F04217530738F0A901DB019A01BD01D7
:104EE000DF01F801C1CFEF01F9CF9093A3038093C5
:104EF000A203CDCFFE01E20FF31F819391932250C5
:104F0000310939832883D7CF2091A0033091A103A1
:104F1000232B41F420911501309116013093A10308
:104F20002093A00320911301309114012115310524
:104F300041F42DB73EB74091170150911801241B41
:104F4000350BE091A003F091A103E217F307A0F461
:104F50002E1B3F0B2817390778F0AC014E5F5F4FCF
:104F60002417350748F04E0F5F1F5093A10340935D
:104F7000A003819391939FCFF0E0E0E09CCFCF938B
:104F8000DF930097E9F0FC01329713821282A0911F
:104F9000A203B091A303ED0130E020E01097A1F44B
:104FA00020813181820F931F2091A0033091A103B2
:104FB0002817390709F061C0F093A103E093A0031B
:104FC000DF91CF910895EA01CE17DF07E8F54A8116
:104FD0005B819E0141155105B1F7E901FB83EA832D
:104FE00049915991C40FD51FEC17FD0761F48081D9
:104FF00091810296840F951FE901998388838281AC
:1050000093819B838A83F0E0E0E012968D919C91DE
:1050100013970097B9F52D913C911197CD01029608
:10502000820F931F2091A0033091A1032817390705
:1050300039F6309751F51092A3031092A203B09362
:10504000A103A093A003BCCFD383C283408151812D
:10505000840F951FC817D90761F44E5F5F4F888191
:105060009981480F591F518340838A819B81938383
:1050700082832115310509F0B0CFF093A303E093AB
:10508000A2039ECFFD01DC01C0CF13821282D7CFD5
:1050900081E090E0F8940C945428DC0101C06D93F9
:1050A00041505040E0F7089517E0C7E0D7E004C052
:1050B000FE010E941D272196C830D107C9F7F89438
:0250C000FFCF20
:1050C20000C18081000000FFFFFFFF00E10000003F
:1050D2000000000000A403800000000000120BC0CA
:1050E2000B850B6A0B000000004308FC0A64085998
:1050F20008AB0869088708000000007D0C0000006A
:1051020000DD1AD107AD193C15B0198E0CD019006B
:105112000000009D0C00000000F915CC15AD1932FD
:1051220007C515B215A315000000008211D107AD05
:10513200193C158D0E32072714FF131B140F148F01
:10514200143207480F5719FD0D460E48132B13B39F
:105152001254120D0A00436F756E746572203D2061
:0251620000004B
:00000001FF
