:100000000C940B020C9433020C9433020C943302C4
:100010000C9433020C9433020C9433020C9433028C
:100020000C9433020C9433020C948E090C94FD0949
:100030000C9433020C9433020C9433020C9433026C
:100040000C9433020C9433020C9433020C9433025C
:100050000C9433020C9433020C9433020C94440934
:100060000C9433020C9433020C9433020C9433023C
:100070000C9433020C9433020C9433020C9433022C
:100080000C9433020C9433020C9433020C9433021C
:100090000C9433020C9433020C9433020C9433020C
:1000A0000C9433020C9433020C94330200000000D1
:1000B0000000000000000000000000002A002B00EB
:1000C0002800000000000000000000000000000008
:1000D0000000000000000000000000000000000020
:1000E0000000000000000000000000002C001E02C4
:1000F00034022002210222022402340026022702B6
:1001000025022E0236002D003700380027001E0081
:100110001F002000210022002300240025002600CB
:100120003302330036022E00370238021F02040267
:10013000050206020702080209020A020B020C026B
:100140000D020E020F02100211021202130214021B
:10015000150216021702180219021A021B021C02CB
:100160001D022F003100300023022D023500040053
:10017000050006000700080009000A000B000C003B
:100180000D000E000F0010001100120013001400EB
:10019000150016001700180019001A001B001C009B
:1001A0001D002F0231023002350200000000000065
:1001B000000000000000000000000000000000003F
:1001C000000000000000000000000000000000002F
:1001D000000000000000000000000000000000001F
:1001E000000000000000000000000000000000000F
:1001F00000000000000000000000000000000000FF
:1002000000000000000000000000000000000000EE
:1002100000000000000000000000000000000000DE
:1002200000000000000000000000000000000000CE
:1002300000000000000000000000000000000000BE
:1002400000000000000000000000000000000000AE
:10025000000000000000000000000000000000009E
:10026000000000000000000000000000000000008E
:10027000000000000000000000000000000000007E
:10028000000000000000000000000000000000006E
:10029000000000000000000000000000000000005E
:1002A000000000000000000000000000080B000239
:1002B00002020000090400000102020000052400FF
:1002C0001001052401010104240206052406000191
:1002D0000705810310004009040100020A00000024
:1002E00007050202400000070583024000000403E6
:1002F000090412010002EF0201404123368000018F
:100300000102030141726475696E6F204C4C430019
:1003100041726475696E6F204C656F6E6172646FB7
:100320000000000000250028002B002E00310000F6
:10033000000000240027002A002D003000000000EB
:10034000002300260029002C002F000404040404CC
:100350000304050202020204030202020206060668
:100360000606060404020202040404080201104006
:10037000804010204080408008020401804020100E
:100380000201108010204040200000000200090FF0
:100390000000030401000C00000000000000000049
:1003A000000000000000000005010980A101850592
:1003B000150026FF00190029FF950175088100C06E
:1003C00005010906A1018502050719E029E71500C5
:1003D0002501750195088102050C95017508150028
:1003E00026FF00190029FF810005079506750815ED
:1003F0000026E700190029E78100C0050C0901A1CA
:10040000018504150026FF0319002AFF03950475D2
:10041000108100C04A0C11241FBECFEFDAE0DEBF0E
:10042000CDBF11E0A0E0B1E0E0E8F0E202C005904D
:100430000D92AE35B107D9F722E0AEE5B1E001C0CB
:100440001D92A135B207E1F712E0CBE0D2E004C083
:100450002197FE010E943810CA30D107C9F70E94C7
:100460004D0D0C943E100C940000FC018091930102
:10047000882311F13FB7F89482E08093E90020913E
:10048000F200822F90E01816190614F481E090E033
:10049000882339F0289844E6409392014091F10076
:1004A0004083222339F02091F200211103C02BE672
:1004B0002093E8003FBF08958FEF9FEF0895282F06
:1004C00030E0F901E757FC4F9491F901E659FC4FF0
:1004D0008491255B3C4FF9012491222309F45BC0F0
:1004E0009923E9F091509F30D0F4E92FF0E0E558DE
:1004F000FD4F0C943810A602AA028A029E02A202A4
:100500008F028F028F02AD02B302B702BB02C1029B
:100510008F02C502909180009F7790938000E22F18
:10052000F0E0EE0FFF1FE35CFC4FA591B491EC915E
:10053000E82381E090E089F580E0089590918000C3
:100540009F7DEBCF90918000977FE7CF94B59F7709
:1005500094BDE5CF94B59F7DFBCF909190009F77A0
:1005600090939000DCCF909190009F7DF9CF909177
:100570009000977FF5CF9091C0009F779093C00037
:10058000CECF9091C0009F7DF9CF9091C200977F10
:100590009093C200C4CF80E090E00895CF92DF92A4
:1005A000EF92FF922FB7F894809126029091270244
:1005B000A0912802B09129022FBF80932E02909320
:1005C0002F02A0933002B093310280912D020E943D
:1005D0005F02FC0120912A0230E091E0E217F3076C
:1005E00009F090E090934E0240912E0250912F021C
:1005F0006091300270913102A0914002B0914102AD
:10060000C0903602D0903702E0903802F090390264
:10061000CA0EDB1EE11CF11C80E04C155D056E0569
:100620007F05E0F0E217F307F1F080915002882394
:10063000D1F01092420240933A0250933B026093F1
:100640003C0270933D0281E0909350024093360249
:10065000509337026093380270933902FF90EF9005
:10066000DF90CF90089580E0EFCFCF93DF9390E0BD
:10067000FC01E659FC4F2491855B9C4FFC01849161
:100680008823C9F090E0880F991FFC01E15DFC4FC1
:10069000A591B491FC01EF5DFC4FC591D49161111E
:1006A0000DC09FB7F8948C91209582238C938881FC
:1006B000282328839FBFDF91CF910895623051F4A2
:1006C0009FB7F8943C91822F809583238C93E88187
:1006D0002E2BEFCF8FB7F894EC912E2B2C938FBF4E
:1006E000EACF3FB7F89480918E0190918F01A0914D
:1006F0009001B091910126B5A89B05C02F3F19F03C
:100700000196A11DB11D3FBFBA2FA92F982F882791
:10071000BC01CD01620F711D811D911D42E0660F6C
:10072000771F881F991F4A95D1F708958F929F923E
:10073000AF92BF92CF92DF92EF92FF924B015C019A
:100740000E9471036B017C010E9471036C197D0989
:100750008E099F09683E734081059105A8F321E049
:10076000821A9108A108B10888EEC80E83E0D81E4D
:10077000E11CF11C81149104A104B10429F7FF903C
:10078000EF90DF90CF90BF90AF909F908F900895A3
:10079000409185015091860120918301309184011F
:1007A00042175307B4F49091E8009570E1F39091EB
:1007B000E80092FD19C08093F1008091850190912D
:1007C000860101968F739927892B19F48EEF8093F8
:1007D000E8008091850190918601019690938601B1
:1007E0008093850181E0089580E00895EF92FF9263
:1007F0000F931F93CF93DF93F82E192FE62E042F1C
:1008000081E0860F880F0E94C80383E00E94C8031E
:10081000CF2DD12FEC0EFD2EF11CCE15DF05B9F03A
:1008200007FF13C0FE0184910E94C803182F80E0C7
:100830000E94C803812321968111EFCFDF91CF91D0
:100840001F910F91FF90EF9008958881EDCF81E087
:10085000F5CFDF92EF92FF920F931F93CF93DF9329
:10086000D82E8A01EB017B01E40EF51ECE15DF05C3
:1008700059F0D7FE12C0FE0184910E94C803219650
:100880008111F4CF0FEF1FEFC801DF91CF911F91BE
:100890000F91FF90EF90DF9008958881EECF2FB7F2
:1008A000F89487708093E9009091E800892F807216
:1008B00095FF04C09091F20080E4891B2FBF08953A
:1008C0007F928F929F92AF92BF92CF92DF92EF92E0
:1008D000FF920F931F93CF93DF93C82E8B017A0162
:1008E00080919301811110C08FEF9FEFDF91CF9125
:1008F0001F910F91FF90EF90DF90CF90BF90AF903E
:100900009F908F907F9008958091890180FF05C00E
:100910008091E00082608093E000CE2DDF2DD12C0D
:100920008AEFB82E8C2D8770982E8C2D8072882E91
:100930008C2D8074782E9AE3A92E209719F4DD204F
:1009400009F452C08C2D0E944F0481110AC0BA9440
:10095000BB2051F261E070E080E090E00E949603DD
:10096000ECCF8C171D0611F00CF08C2F9FB7F8946C
:100970009092E9002091E80025FD02C09FBFDDCFE5
:10098000282F30E0C21BD30B882029F08150A0F023
:100990001092F100FBCFF801C7FC0AC0815050F063
:1009A00041914093F100FACF44914093F100319688
:1009B0008150D0F7020F131FDD2021F0A092E80034
:1009C000D12CDCCF8091E80085FD07C0A092E80023
:1009D000DD24D394209791F2F3CF209779F67720F6
:1009E00069F2A092E800CACF5D9884E680938801FE
:1009F000C7017CCF615030F02091F100FC012083D1
:100A00000196F8CF289884E6809392010895AF92DA
:100A1000BF92CF92DF92EF92FF920F931F93CF93EB
:100A2000DF936C017B018B01040F151FEB015E014D
:100A3000AE18BF08C017D10759F06991D601ED91E2
:100A4000FC910190F081E02DC6010995892B79F781
:100A5000C501DF91CF911F910F91FF90EF90DF9033
:100A6000CF90BF90AF90089580917B0181110DC010
:100A700082E08093770184E08093780110927A017C
:100A80001092790181E080937B0187E791E00895DE
:100A90000F931F93CF93DF931F92CDB7DEB782E002
:100AA000898342E450E06CEA72E080E80E94290405
:100AB0000E943405DC0112960D911C91011511055F
:100AC00089F0D801ED91FC910280F381E02DBE0107
:100AD0006F5F7F4FC801099597FD04C0F80100853D
:100AE0001185ECCF89810F90DF91CF911F910F91EC
:100AF0000895CF93DF93EC0180911201882331F0A8
:100B000083E00E9460041816190634F081E090E03A
:100B10009B838A8380E090E0DF91CF910895CF930B
:100B2000DF931F92CDB7DEB76983DC01ED91FC91B5
:100B30000280F381E02D41E050E0BE016F5F7F4F06
:100B400009950F90DF91CF91089583E08093E9009C
:100B50008091F200882319F08AE38093E8000895D9
:100B600083E00E944F0490E00895CF93DF931F929B
:100B7000CDB7DEB7FC018485958597FD08C02FEFC2
:100B80003FEF358724870F90DF91CF910895CE01F5
:100B900001960E943502019719F4898190E0F3CF04
:100BA0008FEF9FEFF0CF0F931F93CF93DF931F92A1
:100BB000CDB7DEB78C01FC018485958597FF0BC00E
:100BC000CE0101960E943502019771F4898190E06F
:100BD000F80195878487F801848595850F90DF91CA
:100BE000CF911F910F9108958FEF9FEFF1CFFC01EF
:100BF0008485958597FD0BC09FB7F89482E080931C
:100C0000E9008091F2009FBF90E0019608959FB7A0
:100C1000F89482E08093E9008091F2009FBF90E019
:100C20000895DC01FB0112962C9112978481958125
:100C30002817190641F491818081813A31F49D7F12
:100C400081E0913009F080E008958132E1F79B3036
:100C500029F482811F968C9381E008959A3099F748
:100C6000828150968C93F8CFAF92BF92CF92DF9251
:100C7000EF92FF920F931F93CF93DF931F92CDB705
:100C8000DEB77C0169836A01590141E050E0BE0191
:100C90006F5F7F4FFC0183810E9460048C0197FD90
:100CA0000BC0F7018381A501B60180640E94600436
:100CB000080F191F97FD8C01C8010F90DF91CF918C
:100CC0001F910F91FF90EF90DF90CF90BF90AF906A
:100CD0000895DC01FB0188E4808389E4818384E456
:100CE00082831D969C911D979F709F5B93831D9699
:100CF0008D919C9124E0969587952A95E1F78F70C8
:100D00008F5B848385E00895EF92FF920F931F938A
:100D1000CF93DF93FB012081213871F523812232AB
:100D200059F5DC0112964C91248135814217130646
:100D300019F5EC010B851C85F12CE12C0115110531
:100D400089F0F801448155816281738180E80E94B5
:100D500029048F3F980749F0E80EF91ED8010D913C
:100D60001C91ECCF81E08F87C701DF91CF911F915C
:100D70000F91FF90EF90089590E080E0F6CFCF9331
:100D8000DF93CDB7DEB769970FB6F894DEBF0FBE1D
:100D9000CDBFFC01DB018C918F5F8C939E012D5F99
:100DA0003F4F8DE0D9011D928A95E9F729E029830B
:100DB00084E08A8391E09D8383E08E832A8721E209
:100DC0002B879C879D879F8722E2288B27E02B8B90
:100DD00025E02C8B8E8B20E430E0388F2F8B998F81
:100DE00082818B8395858685998B8A8B83818068A8
:100DF0008D8B49E150E0BE016F5F7F4F80E00E9424
:100E0000290469960FB6F894DEBF0FBECDBFDF91FF
:100E1000CF910895CF93DF9380916F01811167C0C7
:100E200081E0809362018093630128E631E0309392
:100E3000650120936401109267011092660127E119
:100E400031E030935F0120935E0110926A011092AD
:100E5000690110926C0110926B0180936D01809377
:100E60006E0181EC809368010E943405FC01818150
:100E700090916201482F490F5527551F4830510561
:100E80009CF5A281B381109709F52EE531E03383FB
:100E9000228320812093600180936101809163010E
:100EA000820F808320916401A22FB09165018A2F67
:100EB000821B8917C8F481813D91C82FD0E0C050B2
:100EC000DF4F38838F5F8183F2CFD90118962D9140
:100ED0003C91199721153105C1F72EE531E019969E
:100EE0003C932E931897D5CF81E080936F018EE5C8
:100EF00091E0DF91CF9108950F931F93CF93DF93EC
:100F0000EB018A010E940A079801AE0165E0DF91BA
:100F1000CF911F910F910C943406CF93DF93EC0186
:100F20000E940A07AE014C5F5F4F28E030E062E0AC
:100F3000DF91CF910C943406089590E080E00895FD
:100F40000F931F93CF93DF93EB018A010E940A074F
:100F50009801AE0164E0DF91CF911F910F910C9445
:100F60003406CF93DF93EC01EEE1F2E090E080E015
:100F7000219131910196232B41F5880F991FFC0196
:100F8000E45EFD4FD183C08348E050E06EE172E043
:100F90008CE192E00E94A007ECE1F2E084E292E0B2
:100FA00022813381C217D30711F413821282329641
:100FB0008E179F07A9F748E050E06EE172E08CE1E0
:100FC00092E0DF91CF910C94A0078430910581F6D7
:100FD000DBCFFC019C01285F3F4F90E080E0448123
:100FE0004111019614823196E217F307C1F7089573
:100FF000CF93DF9382E092E00E94E907EC01892B16
:1010000021F082E092E00E948D07CE01DF91CF9126
:101010000895CF93DF93DC0190E2960F9830B0F4FF
:1010200014968C91149721E030E001C0220F9A951C
:10103000EAF7442341F0282B14962C9381E090E0AA
:10104000DF91CF91089520952823F6CFFD013696A4
:101050004423D1F0CD010C96EF012991621771F371
:10106000C817D907D1F790E080E02191211105C080
:10107000A80FB91F16966C93E1CF019686309105A3
:10108000A1F790E080E0DCCF90E080E02191621356
:1010900005C0A80FB91F16961C92D0CF01968630B6
:1010A0009105A1F7EECFCF93DF9341E0682F82E067
:1010B00092E00E940908EC01892B21F082E092E085
:1010C0000E948D07CE01DF91CF910895CF92DF92DC
:1010D000FF920F931F93CF93DF938C01F42EE62F93
:1010E000F0E0EE0FFF1FE455FF4FC590D490D801FC
:1010F000ED91FC910484F585E02D6C2DC8010995D6
:10110000EC01892B11F4F11070C0D0FE0CC0D80195
:10111000ED91FC910484F585E02D4F2D60EEC80122
:101120000995C82BD92BD1FE0CC0D801ED91FC91AB
:101130000484F585E02D4F2D61EEC8010995C82B7B
:10114000D92BD2FE0CC0D801ED91FC910484F58519
:10115000E02D4F2D62EEC8010995C82BD92BD3FE87
:101160000CC0D801ED91FC910484F585E02D4F2D44
:1011700063EEC8010995C82BD92BD4FE0CC0D80149
:10118000ED91FC910484F585E02D4F2D64EEC801AE
:101190000995C82BD92BD5FE0CC0D801ED91FC9137
:1011A0000484F585E02D4F2D65EEC8010995C82B07
:1011B000D92BD6FE0CC0D801ED91FC910484F585A5
:1011C000E02D4F2D66EEC8010995C82BD92BD7FE0F
:1011D0000CC0D801ED91FC910484F585E02D4F2DD4
:1011E00067EEC8010995C82BD92BCE01DF91CF91AD
:1011F0001F910F91FF90DF90CF9008950F931F9351
:10120000CF93DF93EC0141E00E9466088C01892BAB
:1012100039F0E881F9810284F385E02DCE0109954A
:10122000C801DF91CF911F910F910895FF920F9305
:101230001F93CF93DF93EC01F62E0E94FE088C01E2
:10124000892B71F040E06F2DCE010E946608892B3A
:1012500039F0E881F9810284F385E02DCE0109950A
:10126000C801DF91CF911F910F91FF900895FC016C
:1012700001900020E9F73197AF01481B590BBC01E1
:1012800084E991E00C9479051F920F920FB60F92AA
:1012900011242F933F938F939F93AF93BF9380918C
:1012A000260290912702A0912802B0912902309144
:1012B0008D0123E0230F2D3758F50196A11DB11D97
:1012C00020938D018093260290932702A0932802F9
:1012D000B093290280918E0190918F01A09190018D
:1012E000B09191010196A11DB11D80938E01909343
:1012F0008F01A0939001B0939101BF91AF919F9105
:101300008F913F912F910F900FBE0F901F901895C6
:1013100026E8230F0296A11DB11DD2CF1F920F9276
:101320000FB60F9211248F939F938091E1009091BB
:10133000E100937F9093E10083FF0FC01092E900DA
:1013400091E09093EB001092EC0092E39093ED000B
:101350001092930198E09093F00082FF22C093E0F6
:101360009093E9009091F200992319F09AE39093F9
:10137000E80090918801992341F090918801915063
:1013800090938801911101C05D9A909192019923E7
:1013900041F090919201915090939201911101C06E
:1013A000289A84FF18C08091E2008E7E816080932D
:1013B000E2008091E1008F7E8093E10080918901BD
:1013C0008E7E8061809389019F918F910F900FBED7
:1013D0000F901F90189580FFF7CF8091E2008E7ECE
:1013E00080618093E2008091E1008E7E8093E10035
:1013F000809189018E7E8160E5CF1F920F920FB69A
:101400000F921124CF92DF92EF92FF920F931F93CE
:101410002F933F934F935F936F937F938F939F93FC
:10142000AF93BF93EF93FF93CF93DF93CDB7DEB727
:101430006C97DEBFCDBF1092E9008091E80083FF7A
:1014400025C068E0CE0145960E94FA0482EF8093A1
:10145000E8008D8987FF39C09091E80090FFFCCFAC
:10146000982F907609F034C19E894F89588D2F8925
:10147000F88C911131C0803861F580918A01809398
:10148000F1001092F1008EEF8093E8006C960FB699
:10149000F894DEBF0FBECDBFDF91CF91FF91EF91EA
:1014A000BF91AF919F918F917F916F915F914F917C
:1014B0003F912F911F910F91FF90EF90DF90CF9070
:1014C0000F900FBE0F901F9018959EEF9093E8001D
:1014D000C7CF1092F100D5CF913059F48111D3CFFD
:1014E0004130510581F680918A018D7F80938A0178
:1014F000CACF933049F48111C6CF4130510519F656
:1015000080918A018260F2CF953041F48091E800A9
:1015100080FFFCCF20682093E300B5CF963009F020
:10152000A9C00B8D1C8D22E01092E900109286015B
:1015300010928501F2122EC0109284011092830144
:101540000E9448051F8299E09983FA8291E09E8368
:1015500090EA98879AEF99872091850130918601CA
:10156000275F3F4F3C832B838D831092E9001092BD
:10157000860110928501109384010093830149E054
:1015800050E0BE016F5F7F4F80E00E9429040E94FF
:10159000480579CF10938401009383010E9434059C
:1015A000DC0112960D911C910115110509F451C130
:1015B000D801ED91FC910480F581E02DBE016B5EB8
:1015C0007F4FC8010995009709F03EC1F8010085D9
:1015D0001185EACFF3E0FF120EC08F89882309F44A
:1015E00040C0823061F440E860E180E193E00E9415
:1015F000F603811148CF81E28093EB0047CF813021
:1016000029F440E86BE084E093E0F1CF833099F770
:101610000E943405DC011296ED90FC908E010F5F64
:101620001F4F6801E114F10479F0D701ED91FC91AD
:101630000680F781E02DB801C7010995080F111D3B
:10164000F701E084F184EECFD8011C92F6010190FD
:101650000020E9F73197BF016C197D0940E0C60110
:10166000C6CF6EEE72E0FB01449150E080E80E942C
:10167000290409CF973009F4BECF983021F481E0D6
:101680008093F10000CF993009F0FDCE837009F00E
:10169000B2CFE1E0F1E081E031E096E32191222355
:1016A00071F08093E9003093EB00DF0111972C91EA
:1016B0002093EC009093ED008F5F873079F78EE7F1
:1016C0008093EA001092EA008F8980939301DBCE29
:1016D0008B8D9C8D1092E9001092860110928501ED
:1016E0009093840180938301898D811192C08E89AA
:1016F0009D89913A49F4813209F07DCF47E050E06D
:101700006BE071E080E0B3CF913209F074CF8332A7
:1017100069F48F89988DB0E0A0E0809307019093E1
:101720000801A0930901B0930A01ADCE803269F49B
:101730008091E80082FFFCCF67E08BE091E00E949F
:10174000FA048BEF8093E8009ECE823209F09BCEA4
:101750008F8980931201EEEFFFE7859194918B3F83
:101760009C4D51F1E0E0F8E080910B0190910C016B
:10177000A0910D01B0910E01803B9440A105B105EF
:10178000F1F48091120180FD1AC0EE3F8AE0F80763
:1017900089F587E797E79183808380916000809344
:1017A000870188E19BE00FB6F894A89580936000CC
:1017B0000FBE9093600067CEEEEFFAE0D5CF808148
:1017C00091818737974709F05ECEA8958091600098
:1017D0008861809360008091870180936000EE3F74
:1017E0002AE0F20789F08091FE0A9091FF0A918326
:1017F000808349CE808191818737980751F29093F9
:10180000FF0A8093FE0AC5CF1092FF0A1092FE0ACB
:101810003ACE0E943405DC0112960D911C910115FF
:10182000110509F4E8CED801ED91FC910190F08109
:10183000E02DBE016B5E7F4FC8010995811123CE5B
:10184000F80100851185EBCF181619060CF41BCE94
:10185000D2CEF1E0FF12BECE62EF72E004CFFC0107
:10186000A385B485109771F4748763878585968501
:10187000DB0114962D913C91820F931F96878587EB
:101880000895DC018D919C9111970097D1F76D938C
:101890007C93ECCF109297011092960188EE93E022
:1018A000A0E0B0E08093980190939901A0939A01F1
:1018B000B0939B0183E291E0909395018093940112
:1018C0008FEF9FEF9093A1018093A00185E391E0BA
:1018D0009093F3018093F2018091EA01811113C08A
:1018E0001092E5011092E40188EA93E09093E701F9
:1018F0008093E60188E190E09093E9018093E8010C
:1019000081E08093EA010E940A0764EE71E00E9480
:101910002F0C10920502109204028BE391E0909339
:101920000302809302028091FA01811113C0109288
:10193000F5011092F40180EC93E09093F70180930D
:10194000F6018BE390E09093F9018093F80181E038
:101950008093FA010E940A0764EF71E00E942F0C45
:101960008DE491E090931D0280931C0280911402FB
:10197000811113C010920F0210920E028BEF93E0B0
:10198000909311028093100289E190E090931302EA
:101990008093120281E0809314020E940A076EE095
:1019A00072E00E942F0C81E080932A0282E090E096
:1019B00090933F0280933E0288EC90E09093410226
:1019C000809340021092420210924302109244020D
:1019D00084E690E090934A028093490210924B0271
:1019E00010924C0210924D0210924E0210924F0231
:1019F0001092500288E080932B0287E080932C02A3
:101A000086E080932D022FB7F89480912602909162
:101A10002702A0912802B09129022FBF80932E02A5
:101A200090932F02A0933002B09331028093320240
:101A300090933302A0933402B09335028093360220
:101A400090933702A0933802B093390280934502F5
:101A500090934602A0934702B093480280912A02D5
:101A6000813079F462E080912B020E94350362E0BC
:101A700080912C020E94350362E080912D020C942B
:101A8000350360E080912B020E94350360E0809175
:101A90002C020E94350360E0F0CFCF93DF93CDB7E7
:101AA000DEB7A2970FB6F894DEBF0FBECDBF789415
:101AB00084B5826084BD84B5816084BD85B5826053
:101AC00085BD85B5816085BD80916E008160809304
:101AD0006E0010928100809181008260809381006D
:101AE000809181008160809381008091800081607D
:101AF000809380008091910082608093910080911A
:101B0000910081608093910080919000816080932A
:101B100090008091C10084608093C1008091C100D9
:101B200082608093C1008091C10081608093C10078
:101B30008091C30081608093C3008091C000826067
:101B40008093C0008091C20081608093C200809128
:101B50007A00846080937A0080917A00826080931A
:101B60007A0080917A00816080937A0080917A0077
:101B7000806880937A001092930110928A011092EB
:101B800089018091D70081608093D70080EA80939B
:101B9000D80089B5806189BD89B5826089BD09B4E5
:101BA00000FEFDCF61E070E080E090E00E949603CF
:101BB0008091D8008F7C80618093D8008091E00074
:101BC000807F8093E0008091E1008E7E8093E10031
:101BD0008DE08093E200559A209AEEE1F2E088E0F1
:101BE000DF011D928A95E9F748E050E0BF018CE1E2
:101BF00092E00E94A00768EE73E080E090E00E940F
:101C0000960362E086E00E94350360E087E00E9470
:101C1000350360E088E00E94350362E082E00E94C4
:101C2000350362E083E00E94350362E084E00E94B5
:101C3000350362E085E00E9435039AE0892E912CFD
:101C4000A12CB12C20E0C22E20E0D22E7724739458
:101C500082E8682E8FB7F8944091260250912702AF
:101C600060912802709129028FBF40932E025093F9
:101C70002F02609330027093310220913E02309126
:101C80003F028091320290913302A0913402B091D0
:101C90003502820F931FA11DB11D00E0481759079F
:101CA0006A077B0708F45BC080912B020E945F02E9
:101CB00030912A0221E03817190609F020E020931C
:101CC0004C0280912C020E945F0220912A0230E097
:101CD00041E08217930709F040E040934D02E09104
:101CE0004C0240912E0250912F026091300270916F
:101CF0003102E1116EC1F0914F02FF2309F469C175
:101D000001E08217930709F002E020914902309127
:101D10004A028091450290914602A0914702B091FB
:101D20004802820F931FA11DB11D481759076A076A
:101D30007B0708F04BC100914B0240934502509342
:101D400046026093470270934802E0934F0240932B
:101D5000320250933302609334027093350210E0E4
:101D60000E94CE02E82EF12C0E94CE0280914E02FB
:101D7000811131C18091500281112DC180912E02BB
:101D800090912F0220913A0230913B02821B930BDB
:101D900040912E0250912F026091300270913102D9
:101DA0001A012B01280E391E411C511CD201C10100
:101DB00048515C4F6F4F7F4F481759076A077B07A1
:101DC00008F00CC180914202811108C17092420258
:101DD0005524539482E00E945F02892B91F583EE93
:101DE0000E94530864E670E080E090E00E94960351
:101DF00068E782E092E00E94FE0864E670E080E01E
:101E000090E00E94960365E782E092E00E94FE085F
:101E100064E670E080E090E00E94960364E682E071
:101E200092E00E94FE0864E670E080E090E00E948C
:101E300096030E94F8076CE271E080E090E00E9457
:101E4000960383E00E945F02892B89F48BE30E9452
:101E5000530864E670E080E090E00E9496030E94E0
:101E6000F80764E670E080E090E00E94960384E06A
:101E70000E945F02892BD1F482EE0E94530864E62F
:101E800070E080E090E00E9496038BE20E9453088D
:101E900064E670E080E090E00E9496030E94F807FC
:101EA00064E670E080E090E00E94960385E00E9486
:101EB0005F02892B91F48DEC90E00E94B10764E6FB
:101EC00070E080E090E00E9496030E94F80764E6CC
:101ED00070E080E090E00E9496030130110509F067
:101EE0007FC080918B0190918C01019690938C0121
:101EF00080938B0189EE90E00E94B10781E0E816A3
:101F0000F10421F482EE90E00E94B107A1E05A12A0
:101F100014C06AA241E050E0BE016E5D7F4F82EFC7
:101F200091E00E947C07198241E050E0BE016F5FA2
:101F30007F4F82EF91E00E947C070150110902302F
:101F4000110530F0EA94EF2819F0E1E05E1237C095
:101F50008FE491E00E94370920908B0130908C0132
:101F6000032C000C4408550857FE4AC06DE284E972
:101F700091E00E948F0522273327A90122193309F6
:101F80004409550919A28E010F5D1F4FCA01B901FD
:101F9000A50194010E941610605DD8016E938D0119
:101FA000211531054105510589F70115110519F074
:101FB000C8010E9437098AE591E00E943709C114DF
:101FC000D10409F447CE0E94000040CE00934B029A
:101FD000B4CE00E0BACE90E080E0DACE512CFACE5A
:101FE0000230110509F08ACF80918B0190918C010C
:101FF000019790938C0180938B018AEE90E07CCFC7
:10200000A201910119A28E010F5D1F4FCA01B901F2
:10201000A50194010E941610605DF80162938F0182
:10202000211531054105510589F7BFCFA1E21A2ECF
:10203000AA1BBB1BFD010DC0AA1FBB1FEE1FFF1F6C
:10204000A217B307E407F50720F0A21BB30BE40BBC
:10205000F50B661F771F881F991F1A9469F7609503
:102060007095809590959B01AC01BD01CF010895BD
:10207000EE0FFF1F0590F491E02D0994F894FFCF27
:1020800000C18081000000FFFFFFFF00E1000000B1
:10209000000000000000001106BF0684066906006B
:1020A0000000008F057905B005A505F705B505D336
:1020B00005000000007C0700000000160907059DD0
:1020C000079C07E9078D07090800000000A00743E7
:0E20D0006F756E746572203D20000D0A0000D1
:00000001FF
